:10000000B8C0000065C6000090C60000BBC6000076
:10001000CEC00000CCC00000CAC00000C8C00000B4
:10002000C6C00000C4C000000C94FD080C949508E4
:100030000C943B080C946808F1C70000B8C000009D
:100040004EC70000B4C00000B2C00000B0C0000045
:10005000AEC00000ACC00000DAC60000A8C00000BE
:10006000A6C00000A4C00000A2C00000A0C0000004
:100070009EC000009CC000009AC0000098C0000014
:1000800096C0000094C0000092C000003F024102F0
:1000900043024502470249024B024D024F02510200
:1000A00053025502570259025B025D025F02610270
:1000B00063026502710273027502770279027B02A4
:1000C0007D027F02810283028502870289028B0200
:1000D0008D028F029102930295029702A302A5025C
:1000E000A702A902AB02AD02AF02B102B302B50290
:1000F000B702B902BB02BD02BF02C102C302C50200
:10010000C702C902D402D602D802DA02DC02DE0239
:10011000E002E202E402E602E802EA02EC02EE0297
:10012000F002F202F402F602F802FA026303730329
:1001300083039303A303B303C603E303F503070495
:1001400019042A043B044F046D047E048F04A004A8
:10015000B204C404DA0402050E051A0526053205A8
:100160003E054B056405720580058E059C05AA05B4
:10017000BA0511241FBECFEFD0E1DEBFCDBF11E025
:10018000A0E0B1E0EAE6F4E100E00BBF02C00790B6
:100190000D92A833B107D9F721E0A8E3B1E001C07F
:1001A0001D92AF35B207E1F739D20C94330A28CF4C
:1001B00024D29093390180933801089561E080E062
:1001C0000FD461E081E00CD461E082E009D461E009
:1001D00083E006C4CF93C82F60E089E001D46C2F80
:1001E000661F6627661F8FE1FBD3C6FB662760F993
:1001F0008EE1F6D3C5FB662760F98DE1F1D3C4FB30
:10020000662760F98CE1ECD361E088E0E9D38FECFC
:1002100097E00197F1F700C0000060E088E0E0D3CC
:100220008FEC97E00197F1F700C00000C3FB662751
:1002300060F98FE1D5D3C2FB662760F98EE1D0D398
:10024000C1FB662760F98DE1CBD36C2F61708CE127
:10025000C7D361E088E0C4D38FEC97E00197F1F752
:1002600000C0000060E088E0BBD38FEC97E001970E
:10027000F1F700C00000CF910895CF93C82F61E03F
:1002800089E0AED36C2F661F6627661F8FE1A8D367
:10029000C6FB662760F98EE1A3D3C5FB662760F92C
:1002A0008DE19ED3C4FB662760F98CE199D361E0B0
:1002B00088E096D38FEC97E00197F1F700C000003B
:1002C00060E088E08DD38FEC97E00197F1F700C0F4
:1002D0000000C3FB662760F98FE182D3C2FB66276B
:1002E00060F98EE17DD3C1FB662760F98DE178D39B
:1002F0006C2F61708CE174D361E088E071D38FEC76
:1003000097E00197F1F700C0000060E088E068D353
:100310008FEC97E00197F1F700C00000CF910895AE
:100320002FE788E391E0215080409040E1F700C042
:10033000000082E04FDF88E24DDF8CE04BDF81E0A0
:1003400049DF8FEC97E00197F1F700C0000086E0ED
:1003500041CF4F925F926F927F92AF92BF92CF92B6
:10036000DF92EF92FF921F93CF93DF93CDB7DEB76B
:100370002A970FB6F894DEBF0FBECDBF6B017C018C
:100380006115710581059105A9F480E32A960FB6E0
:10039000F894DEBF0FBECDBFDF91CF911F91FF90CC
:1003A000EF90DF90CF90BF90AF907F906F905F9075
:1003B0004F9063CF97FF0AC08DE25FDFF094E09427
:1003C000D094C094C11CD11CE11CF11C10E09AE037
:1003D000492E512C612C712CAA24A394B12CAC0E63
:1003E000BD1EA10EB11C17FDBA94C701B601A30131
:1003F00092010E94FF09605DF501608369017A0145
:1004000081E0810FC114D104E104F10411F0182F2F
:10041000E3CF1F3F61F0E1E0F0E0EC0FFD1FE10FE3
:10042000F11D17FDFA95808128DF1150F2CF2A9631
:100430000FB6F894DEBF0FBECDBFDF91CF911F91F5
:10044000FF90EF90DF90CF90BF90AF907F906F9034
:100450005F904F9008958130D1F138F0823009F4E7
:1004600068C0833009F497C00895862F90E08431E6
:10047000910508F0C1C0FC01EA5BFF4FDCC780E8D2
:10048000BAC081E8B8C082E8B6C083E8B4C084E8E6
:10049000B2C085E8B0C086E8AEC087E8ACC088E8E6
:1004A000AAC089E8A8C08AE8A6C08BE8A4C08CE8E6
:1004B000A2C08DE8A0C08EE89EC08FE89CC080E9F5
:1004C0009AC081E998C082E996C083E994C0862FDA
:1004D00090E08431910508F08FC0FC01E65AFF4F8F
:1004E000AAC780EC88C081EC86C082EC84C083EC13
:1004F00082C084EC80C085EC7EC086EC7CC087EC3A
:100500007AC088EC78C089EC76C08AEC74C08BEC39
:1005100072C08CEC70C08DEC6EC08EEC6CC08FEC39
:100520006AC080ED68C081ED66C082ED64C083ED75
:1005300062C0862F90E08431910508F05DC0FC0117
:10054000E259FF4F78C784E956C085E954C086E96F
:1005500052C087E950C088E94EC089E94CC08AE999
:100560004AC08BE948C08CE946C08DE944C08EE999
:1005700042C08FE940C080EA3EC081EA3CC082EAC6
:100580003AC083EA38C084EA36C085EA34C086EAD5
:1005900032C087EA30C0862F90E08431910560F543
:1005A000FC01EE57FF4F47C784ED25C085ED23C002
:1005B00086ED21C087ED1FC088ED1DC089ED1BC0F1
:1005C0008AED19C08BED17C08CED15C08DED13C0F1
:1005D0008EED11C08FED0FC080EE0DC081EE0BC00F
:1005E00082EE09C083EE07C084EE05C085EE03C02D
:1005F00086EE01C087EEEECD089581E03DC060E05B
:1006000080E029DF60913A0170E080E090E0A1DEB7
:1006100080913A018F5F80933A01089568D680E017
:10062000CBD262E080E0D8D26FEF72E080E03BD3C3
:10063000FFCF96B1987F96B996B16770692B66B96E
:10064000813041F028F0823039F43E9A3F9A04C05C
:100650003E9801C03E9A3F983D98379A089597B1C9
:10066000907E97B997B18F71982B97B9369A369932
:10067000FECF84B195B10895F2DF9C01A8E8B3E103
:10068000E3D6DC01CB012AE0B695A795979587952F
:100690002A95D1F70895E82FE695E695E6958770B7
:1006A000683009F486C0693009F40DC1673009F07B
:1006B00096C14E2F50E04730510508F090C1FA0125
:1006C000EA56FF4FB8C64AB321E030E0B90102C094
:1006D000660F771F8A95E2F7CB01942F982B9ABB70
:1006E0009BB380957FC047B321E030E0B90102C0E1
:1006F000660F771F8A95E2F7CB01942F982B97BB53
:1007000098B3809581C044B321E030E0B90102C0C4
:10071000660F771F8A95E2F7CB01942F982B94BB35
:1007200095B3809583C041B321E030E0B90102C0A8
:10073000660F771F8A95E2F7CB01942F982B91BB18
:1007400092B3809585C042B121E030E0B90102C08A
:10075000660F771F8A95E2F7CB01942F982B92B9F9
:1007600093B1809586C04091610021E030E0B901ED
:1007700002C0660F771F8A95E2F7CB01942F982B62
:100780009093610090916200809587C040916400D1
:1007900021E030E0B90102C0660F771F8A95E2F7C9
:1007A000CB01942F982B90936400909165008095D5
:1007B00088C04E2F50E04730510508F010C1FA01B3
:1007C000E356FF4F38C64AB321E030E0B90102C01A
:1007D000660F771F8A95E2F7CB018095942F9823B7
:1007E0009ABB9BB389238BBB089547B321E030E0CC
:1007F000B90102C0660F771F8A95E2F7CB01809599
:10080000942F982397BB98B3892388BB089544B34A
:1008100021E030E0B90102C0660F771F8A95E2F748
:10082000CB018095942F982394BB95B3892385BBE6
:10083000089541B321E030E0B90102C0660F771F8F
:100840008A95E2F7CB018095942F982391BB92B3C0
:10085000892386C042B121E030E0B90102C0660FB1
:10086000771F8A95E2F7CB018095942F982392B950
:1008700093B1892387C04091610021E030E0B90144
:1008800002C0660F771F8A95E2F7CB018095942FFF
:1008900098239093610090916200892388C04091D1
:1008A000640021E030E0B90102C0660F771F8A952D
:1008B000E2F7CB018095942F982390936400909158
:1008C000650089238AC04E2F50E04730510508F05B
:1008D00086C0FA01EC55FF4FAEC54AB321E030E0C7
:1008E000B90102C0660F771F8A95E2F7CB01962FF8
:1008F000909594239ABB9BB3892B75CF47B321E086
:1009000030E0B90102C0660F771F8A95E2F7CB018C
:10091000962F9095942397BB98B3892B76CF44B3A9
:1009200021E030E0B90102C0660F771F8A95E2F737
:10093000CB01962F9095942394BB95B3892B77CFB9
:1009400041B321E030E0B90102C0660F771F8A95FC
:10095000E2F7CB01962F9095942391BB92B3892B0C
:1009600082BB089542B121E030E0B90102C0660FB8
:10097000771F8A95E2F7CB01962F9095942392B931
:1009800093B1892B83B908954091610021E030E053
:10099000B90102C0660F771F8A95E2F7CB01962F47
:1009A000909594239093610090916200892B80939D
:1009B000620008954091640021E030E0B90102C076
:1009C000660F771F8A95E2F7CB01962F90959423B7
:1009D0009093640090916500892B80936500089541
:1009E000E82FE695E695E6958770613009F060C0DE
:1009F0004E2F50E04730510508F0CBC0FA01E555C5
:100A0000FF4F19C54BB321E030E0B90102C0660FBA
:100A1000771F8A95E2F7CB01842B62C048B321E0AF
:100A200030E0B90102C0660F771F8A95E2F7CB016B
:100A3000842B64C045B321E030E0B90102C0660FE9
:100A4000771F8A95E2F7CB01842B66C042B321E081
:100A500030E0B90102C0660F771F8A95E2F7CB013B
:100A6000842B68C043B121E030E0B90102C0660FB9
:100A7000771F8A95E2F7CB01842B6AC04091620010
:100A800021E030E0B90102C0660F771F8A95E2F7D6
:100A9000CB01842B6CC04091650021E030E0B901AE
:100AA00002C0660F771F8A95E2F7CB01842B6FC0D7
:100AB00061116FC04E2F50E04730510508F069C0FA
:100AC000FA01EE54FF4FB7C44BB321E030E0B90157
:100AD00002C0660F771F8A95E2F7CB0180958423C9
:100AE0008BBB089548B321E030E0B90102C0660F26
:100AF000771F8A95E2F7CB018095842388BB089500
:100B000045B321E030E0B90102C0660F771F8A9536
:100B1000E2F7CB018095842385BB089542B321E0A1
:100B200030E0B90102C0660F771F8A95E2F7CB016A
:100B30008095842382BB089543B121E030E0B90160
:100B400002C0660F771F8A95E2F7CB018095842358
:100B500083B908954091620021E030E0B90102C0FC
:100B6000660F771F8A95E2F7CB01809584238093E7
:100B7000620008954091650021E030E0B90102C0B3
:100B8000660F771F8A95E2F7CB01809584238093C7
:100B9000650008950F931F93CF9300E011E0C0E02C
:100BA000F80161918F018C2F76DDCF5FC833C1F7DB
:100BB000CF911F910F910895813039F018F0823054
:100BC00039F0089589B7816005C089B7826002C095
:100BD00089B7846089BF0895813039F120F082306F
:100BE00009F445C00895613051F028F0623081F079
:100BF000633091F0089580916A008E7F03C08091E8
:100C00006A00816080936A0080916A008D7F48C08D
:100C100080916A008E7F03C080916A00816080931A
:100C20006A0080916A0082603BC0613051F028F018
:100C3000623081F0633091F0089580916A008B7F7B
:100C400003C080916A00846080936A0080916A008A
:100C5000877F26C080916A008B7F03C080916A00E5
:100C6000846080936A0080916A00886019C0623055
:100C700031F0633069F480916A00806103C0809133
:100C80006A008F7E80936A0080916A00806208C04B
:100C900080916A00806180936A0080916A008F7DF4
:100CA00080936A000895813049F018F0823059F03D
:100CB00008957093400160933F01089570933E0141
:100CC00060933D01089570933C0160933B0108954A
:100CD0001F920F920FB60F9211240BB60F922F9303
:100CE0003F934F935F936F937F938F939F93AF93B4
:100CF000BF93EF93FF93E0913F01F0914001309754
:100D000009F00995FF91EF91BF91AF919F918F915C
:100D10007F916F915F914F913F912F910F900BBEFB
:100D20000F900FBE0F901F9018951F920F920FB645
:100D30000F9211240BB60F922F933F934F935F9313
:100D40006F937F938F939F93AF93BF93EF93FF9393
:100D5000E0913D01F0913E01309709F00995FF9136
:100D6000EF91BF91AF919F918F917F916F915F9123
:100D70004F913F912F910F900BBE0F900FBE0F9090
:100D80001F9018951F920F920FB60F9211240BB659
:100D90000F922F933F934F935F936F937F938F9314
:100DA0009F93AF93BF93EF93FF93E0913B01F0913B
:100DB0003C01309709F00995FF91EF91BF91AF91F8
:100DC0009F918F917F916F915F914F913F912F9163
:100DD0000F900BBE0F900FBE0F901F901895E199CA
:100DE000FECF9FBB8EBB6DBBE29AE19A0895E1995D
:100DF000FECF9FBB8EBBE09A8DB30895E39A089512
:100E0000E3980895909342018093410108951F92C1
:100E10000F920FB60F9211240BB60F922F933F93A0
:100E20004F935F936F937F938F939F93AF93BF93F2
:100E3000EF93FF93E0914101F0914201309709F067
:100E40000995FF91EF91BF91AF919F918F917F9104
:100E50006F915F914F913F912F910F900BBE0F902B
:100E60000FBE0F901F901895813059F038F08230E6
:100E700071F0833091F483B780640BC083B78F7BAC
:100E800002C083B7806483BF83B7877F05C083B701
:100E90008F7B83BF83B7886083BF83B7887F83BF1F
:100EA00083B7682B63BF0895813049F028F0823002
:100EB00061F0833069F0089583B78F7E02C083B7F5
:100EC000806183BF83B78F7D08C083B78F7E02C0E8
:100ED00083B7806183BF83B7806283BF08951F9209
:100EE0000F920FB60F9211240BB60F922F933F93D0
:100EF0004F935F936F937F938F939F93AF93BF9322
:100F0000EF93FF93E0914301F0914401309709F092
:100F10000995FF91EF91BF91AF919F918F917F9133
:100F20006F915F914F913F912F910F900BBE0F905A
:100F30000FBE0F901F9018958230D9F050F488237F
:100F400079F0813071F58FB58E7F8FBD8FB58D7F34
:100F500021C08330D1F0843021F58FB5816017C076
:100F60008FB58E7F8FBD8FB58D7F8FBD8EB5877FFF
:100F700008C08FB58E7F8FBD8FB58D7F8FBD8EB52D
:100F800088608EBD8EB58F7E0BC08FB58E7F8FBD76
:100F90008FB582608FBD8EB588608EBD8EB5806145
:100FA0008EBD8EB5887F8EBD8EB5682B6EBD0895C3
:100FB000813049F028F0823061F0833069F0089583
:100FC0008FB58F7B02C08FB580648FBD8FB58F7753
:100FD00008C08FB58F7B02C08FB580648FBD8FB581
:100FE00080688FBD0895813049F028F0823061F02B
:100FF000833069F008958FB58F7E02C08FB5806110
:101000008FBD8FB58F7D08C08FB58F7E02C08FB525
:1010100080618FBD8FB580628FBD08951F920F9242
:101020000FB60F9211240BB60F922F933F934F934D
:101030005F936F937F938F939F93AF93BF93EF9340
:10104000FF93E0914D01F0914E01309709F0099521
:10105000FF91EF91BF91AF919F918F917F916F9190
:101060005F914F913F912F910F900BBE0F900FBE4C
:101070000F901F9018951F920F920FB60F92112488
:101080000BB60F922F933F934F935F936F937F9382
:101090008F939F93AF93BF93EF93FF93E0914B0197
:1010A000F0914C01309709F00995FF91EF91BF91B4
:1010B000AF919F918F917F916F915F914F913F91F0
:1010C0002F910F900BBE0F900FBE0F901F90189591
:1010D0001F920F920FB60F9211240BB60F922F93FF
:1010E0003F934F935F936F937F938F939F93AF93B0
:1010F000BF93EF93FF93E0914901F0914A0130973C
:1011000009F00995FF91EF91BF91AF919F918F9158
:101110007F916F915F914F913F912F910F900BBEF7
:101120000F900FBE0F901F9018951F920F920FB641
:101130000F9211240BB60F922F933F934F935F930F
:101140006F937F938F939F93AF93BF93EF93FF938F
:10115000E0914701F0914801309709F00995FF911E
:10116000EF91BF91AF919F918F917F916F915F911F
:101170004F913F912F910F900BBE0F900FBE0F908C
:101180001F901895813059F038F0823071F083301B
:1011900091F485B580640BC085B58F7B02C085B5A1
:1011A000806485BD85B5877F05C085B58F7B85BD8E
:1011B00085B5886085BD85B5887F85BD85B5682B7B
:1011C00065BD0895813049F028F0823061F08330A8
:1011D00069F0089585B58F7E02C085B5806185BDB3
:1011E00085B58F7D08C085B58F7E02C085B58061CD
:1011F00085BD85B5806285BD08951F920F920FB69B
:101200000F9211240BB60F922F933F934F935F933E
:101210006F937F938F939F93AF93BF93EF93FF93BE
:10122000E0914501F0914601309709F00995FF9151
:10123000EF91BF91AF919F918F917F916F915F914E
:101240004F913F912F910F900BBE0F900FBE0F90BB
:101250001F90189593B381E0892783BB60E080E0FD
:10126000FAD861E070E080E090E073C880915B01A3
:1012700090915C01892BC9F48091550190915601A0
:10128000692F70E081E090E0AADD81E090E090932A
:101290005C0180935B016AE0DED86091550170913A
:1012A000560180E090E055D807C080915B01909195
:1012B0005C01019709F4A4DD8091590190915A01D4
:1012C000892B71F481E090E092DD90935801809336
:1012D000570181E090E090935C0180935B0101C035
:1012E0008FDD80914F018F5F80934F01089586EAD3
:1012F00097E090935E0180935D0110925C011092E3
:101300005B0110925A0110925901109254011092EF
:101310005101109250013EDC03D80E94DE0066E0CD
:1013200081E087D90E94D80062E083E09DDD83E000
:10133000BBDD62E083E000DE80E03ADE80E053DE89
:1013400062E080E01FDF80E03DDF12BE7894809194
:101350005D0190915E01909353018093520180E072
:1013600090E045DD909353018093520186E399E02C
:1013700049DD10925A011092590183E090E0909358
:101380005C0180935B013ADD809157019091580197
:10139000982F88272091520130915301822B932B53
:1013A000909353018093520180E006DC62E080E07C
:1013B00013DC6AE279E080E076CCA1E21A2EAA1B67
:1013C000BB1BFD010DC0AA1FBB1FEE1FFF1FA217F5
:1013D000B307E407F50720F0A21BB30BE40BF50BF2
:1013E000661F771F881F991F1A9469F7609570957B
:1013F000809590959B01AC01BD01CF010895052E0C
:1014000097FB16F400940FD057FD05D0D6DF07FCEC
:1014100002D046F408C050954095309521953F4F35
:101420004F4F5F4F089590958095709561957F4FD0
:101430008F4F9F4F0895EE0FFF1F0024001C0BBE1F
:101440000790F691E02D0994A29FB001B39FC001CF
:10145000A39F700D811D1124911DB29F700D811DE0
:0A1460001124911D0895F894FFCFA8
:10146A0007070707090909090707070707070707FA
:10147A0007090909070707070907070707070707EA
:10148A0007070707070707070808080807070707DE
:08149A00070707070707070712
:00000001FF
