:100000000C942A000C9447000C9447000C94470071
:100010000C9447000C9447000C9447000C94580231
:100020000C9447000C9447000C9447000C94470034
:100030000C9447000C9447000C9447000C94470024
:100040000C9447000C9447000C9447000C94470014
:100050000C94470011241FBECFE5D8E0DEBFCDBF12
:1000600010E0A0E6B0E0E6ECFAE102C005900D92E7
:10007000A439B107D9F726E0A4E9B0E001C01D9288
:10008000A93DB207E1F70E94430A0C94610D0C945C
:100090000000CF93DF93EC010E944306209194006F
:1000A00030919500C9018C0F9D1F8C3D45E0940750
:1000B00058F42817390758F4E901CA56DF4F9093CE
:1000C00095008093940005C0C0E0D0E002C0C0E07D
:1000D000D0E00E94F306CE01DF91CF9108950895FC
:1000E000FC010396928381832FEF3FEF34832383B8
:1000F000968385839087878310820895FC011186FB
:1001000010860895CF93DF93FC01DB0121813281BA
:10011000E9018A819B8113969C938E93129781812A
:10012000928115969C938E9314978A819B81EC0102
:100130007D836C83E9017B836A8372836183199673
:10014000FC93EE93189780818F5F8083DF91CF912E
:100150000895CF93DF93EB01488159814F3F2FEFF3
:10016000520731F4DC011796ED91FC9118970DC000
:10017000FC01339603C00280F381E02DA281B3819C
:100180002D913C9142175307B0F7A281B381BB83F5
:10019000AA831596DC93CE931497FD83EC83D383C7
:1001A000C28399878887FC0120812F5F2083DF919C
:1001B000CF910895FC01A281B38184819581159628
:1001C0009C938E931497A481B58182819381139619
:1001D0009C938E931297A085B18511968D919C91D9
:1001E0001297E817F90731F48481958112969C9350
:1001F0008E931197118610868C9181508C9308955F
:100200001BBC8CE78ABD8BE08EBD89B7806189BF3E
:10021000089531E1FC013083319722E22083319748
:10022000A3E3A08331976083319770833197108265
:10023000319760E8608331971082319762E0608384
:10024000319763E06083319764E06083319765E0C4
:100250006083319766E06083319767E06083319710
:1002600068E06083319769E06083319760E1608383
:1002700031973083319732E13083319733E13083E6
:10028000319734E13083319735E13083319736E16E
:100290003083319737E13083319738E130833197BC
:1002A00039E13083319730E23083319731E2308366
:1002B00031972083319723E2208331974083319710
:1002C0005083319726E22083319727E220833197AC
:1002D00028E22083319729E22083319720E320838D
:1002E000319721E32083869708950E940001A09111
:1002F000D306B091D406CD91CDBFDD91DEBFFF9185
:10030000EF91DF91CF91BF91AF919F918F917F91AD
:100310006F915F914F913F912F911F910F91FF909E
:10032000EF90DF90CF90BF90AF909F908F907F9095
:100330006F905F904F903F902F901F900F900FBE47
:100340000F90089581E008950F920FB6F8940F92E0
:100350001F9211242F923F924F925F926F927F9241
:100360008F929F92AF92BF92CF92DF92EF92FF92C5
:100370000F931F932F933F934F935F936F937F93AD
:100380008F939F93AF93BF93CF93DF93EF93FF939D
:10039000A091D306B091D4060DB60D920EB60D9273
:1003A0000E94BB07A091D306B091D406CD91CDBFDA
:1003B000DD91DEBFFF91EF91DF91CF91BF91AF91C2
:1003C0009F918F917F916F915F914F913F912F916D
:1003D0001F910F91FF90EF90DF90CF90BF90AF9063
:1003E0009F908F907F906F905F904F903F902F9055
:1003F0001F900F900FBE0F9008950F920FB6F894B4
:100400000F921F9211242F923F924F925F926F9200
:100410007F928F929F92AF92BF92CF92DF92EF9294
:10042000FF920F931F932F933F934F935F936F937D
:100430007F938F939F93AF93BF93CF93DF93EF936C
:10044000FF93A091D306B091D4060DB60D920EB6CF
:100450000D920E9449060E94BB07A091D306B0915D
:10046000D406CD91CDBFDD91DEBFFF91EF91DF913D
:10047000CF91BF91AF919F918F917F916F915F913C
:100480004F913F912F911F910F91FF90EF90DF902F
:10049000CF90BF90AF909F908F907F906F905F9024
:1004A0004F903F902F901F900F900FBE0F90089588
:1004B0000E94FD0118950FB6F8940F92FC01928DE1
:1004C00081E0911180E00F900FBE08950FB6F8946F
:1004D0000F92FC01228D938D81E0291380E00F9013
:1004E0000FBE0895CF93DF93EC018C8D8823A9F183
:1004F000411117C0482F50E08C819D810E94420D10
:100500002C8D8C819D81820F911D9D838C832A81EE
:100510003B818217930708F1888199819D838C83A1
:100520001CC0482F50E08E819F810E94420D8C8D0F
:1005300090E09195819591092E813F81280F391F77
:100540003F832E83488159812417350730F42A814F
:100550003B81820F931F9F838E838A8D8F5F8A8F4B
:10056000DF91CF910895FC01808191810097A1F0E6
:10057000448D50E026813781240F351F3783268331
:10058000A281B3812A173B0710F097838683CB01A2
:10059000668177810E94420D0895CF93DF93EC012D
:1005A0000FB6F8940F920DC08989882369F0CE01A7
:1005B00041960E94310881110E94B9088E8D8150A8
:1005C0008E8F8E8D181684F38FEF8E8F0F900FBE47
:1005D0000FB6F8940F920DC08885882369F0CE017C
:1005E00008960E94310881110E94B9088D8D8150B2
:1005F0008D8F8D8D181684F38FEF8D8F0F900FBE1A
:10060000DF91CF910895AF92BF92CF92DF92EF9298
:10061000FF920F931F93CF93DF93882309F445C074
:10062000062F182F8FE190E00E944900EC01892BE2
:10063000F1F1E12EF12CC02ED12CEC9C5001ED9C5F
:10064000B00CFC9CB00C1124C50101960E9449001D
:1006500099838883009719F1A80EB91EBB82AA82DC
:100660001A8E9D838C8321E0E21AF108CE9C9001C2
:10067000CF9C300DDE9C300D1124820F931F9F8381
:100680008E831B8F0C8F8FEF8D8F8E8FCE010896F0
:100690000E947000CE0141960E94700008C0CE01F9
:1006A0000E946F00C0E0D0E002C0C0E0D0E0CE0108
:1006B000DF91CF911F910F91FF90EF90DF90CF903E
:1006C000BF90AF900895CF92DF92EF92FF920F9379
:1006D0001F93CF93DF9300D000D01F92CDB7DEB72A
:1006E0008C017B015D834C83C22ED12C0FB6F89414
:1006F0000F92F801928D838D9817A8F44C2DB701B5
:10070000C8010E947202F8018189882341F0C80162
:1007100041960E943108813011F40E94A4010F908B
:100720000FBE81E04DC08C819D81892B21F40F90FB
:100730000FBE80E045C0D11006C0CE0101960E94D8
:100740007708DD24D3940F900FBE0E9443060FB6A6
:10075000F8940F92F801858D8F3F09F4158EF801FA
:10076000868D8F3F09F4168E0F900FBEBE016C5F11
:100770007F4FCE0101960E94820881111BC0C801E3
:100780000E946602882381F06C817D81C8010896F1
:100790000E941408C8010E94CD020E94F306811134
:1007A000A5CF0E94A401A2CFC8010E94CD020E9441
:1007B000F3069CCFC8010E94CD020E94F30680E0A0
:1007C0000F900F900F900F900F90DF91CF911F918E
:1007D0000F91FF90EF90DF90CF900895AF92BF926E
:1007E000CF92DF92EF92FF920F931F93CF93DF93FD
:1007F00000D000D01F92CDB7DEB78C016B015D83B6
:100800004C83E22EF12C0FB6F8940F92F801828DF2
:10081000882349F1A680B780B601C8010E94B302BF
:10082000E11010C0F801828D8150828F808588236D
:10083000B1F0C80108960E943108813081F40E940D
:10084000A4010DC0F801B782A6828189882339F0FE
:10085000C80141960E94310881110E94A4010F90A5
:100860000FBE81E04DC08C819D81892B21F40F90BA
:100870000FBE80E045C0F11006C0CE0101960E9477
:100880007708FF24F3940F900FBE0E9443060FB623
:10089000F8940F92F801858D8F3F09F4158EF801B9
:1008A000868D8F3F09F4168E0F900FBEBE016C5FD0
:1008B0007F4FCE0101960E94820881111BC0C801A2
:1008C0000E945B02882381F06C817D81C801419682
:1008D0000E941408C8010E94CD020E94F3068111F3
:1008E00092CF0E94A4018FCFC8010E94CD020E9426
:1008F000F30689CFC8010E94CD020E94F30680E072
:100900000F900F900F900F900F90DF91CF911F914C
:100910000F91FF90EF90DF90CF90BF90AF90089530
:10092000CF93DF93EC018F89988D0E946F00CE01E9
:100930000E946F00DF91CF910895EF92FF920F9385
:100940001F93CF93DF937C01EB018DE290E00E9437
:1009500049008C01892BB9F0209721F4C7010E942E
:10096000490001C0CE01F801908F878B009731F4C8
:10097000C8010E946F0000E010E005C0A70165EA11
:1009800070E00E944B0DC801DF91CF911F910F9134
:10099000FF90EF9008951F93CF93DF93EC01142FF6
:1009A00044E150E049960E94520D1CA6153008F013
:1009B00014E01E8BCE0102960E947E00CE010C96A2
:1009C0000E947E00D987C88785E090E0811B91094D
:1009D0009D878C87DB8BCA8BDF91CF911F91089508
:1009E000CF93C0E010C08C2F90E09C01220F331FEA
:1009F000220F331F220F331F820F931F8A55994FE7
:100A00000E947000CF5FC53070F38DE996E00E94C0
:100A1000700084E996E00E94700087E896E00E94EA
:100A200070008EE796E00E9470008DE996E090934A
:100A300093068093920684E996E0909391068093C2
:100A40009006CF910895CF93DF93EC01E091D30608
:100A5000F091D4069383828380917A0690917B06ED
:100A6000C817D90768F46091D3067091D4068091B5
:100A70009006909191066E5F7F4F0E94A90017C06B
:100A80006091D3067091D40680919206909193065E
:100A90006E5F7F4F0E94A90080916000909161007D
:100AA000C817D90720F4D0936100C0936000DF918C
:100AB000CF9108952F923F924F925F927F928F92A3
:100AC0009F92AF92BF92CF92DF92EF92FF920F93DD
:100AD0001F93CF93DF9300D000D0CDB7DEB79A83BA
:100AE00089834B015C834B831901702EB60125016C
:100AF000CA010E949D045C01009709F470C0FC01CA
:100B0000C788D08C8B819C810197C80ED91E0B8120
:100B10001C819201472DB401C5010E94CB04A101A3
:100B200069817A81C6010E940901F5019183808360
:100B3000E114F10419F0F701B182A0820FB6F89424
:100B40000F9280917C068F5F80937C068091D30604
:100B50009091D406892B59F4B092D406A092D30672
:100B600080917C06813091F40E94F0040FC0809146
:100B7000770681110BC0E091D306F091D4068689E7
:100B8000781620F0B092D406A092D306F50186899B
:100B900090917906981710F48093790690917206D7
:100BA0009F5F9093720690917806981710F4809347
:100BB000780690E0B5016E5F7F4F9C01220F331FD6
:100BC000220F331F220F331F820F931F8A55994F15
:100BD0000E9482000F900FBEF1E0F98302C08FEFF8
:100BE0008983E981E13069F480917706882349F0AF
:100BF000E091D306F091D4068689871510F40E94FF
:100C0000A40189810F900F900F900F90DF91CF91E9
:100C10001F910F91FF90EF90DF90CF90BF90AF901A
:100C20009F908F907F905F904F903F902F9008956E
:100C3000AF92BF92CF92DF92EF92FF920F93A12CCF
:100C4000B12CC12CD12CE12CF12C00E020E030E0C3
:100C500044E650E062E670E088EB97E00E945A05B7
:100C6000813049F4F8948093770610927B061092B5
:100C70007A060E9475010F91FF90EF90DF90CF9060
:100C8000BF90AF900895809176068F5F809376062F
:100C900008950F931F93CF93DF9380917606811170
:100CA00098C080917A0690917B06019690937B067E
:100CB00080937A0680917A0690917B06892B99F52C
:100CC0008091920690919306209190063091910622
:100CD000309393062093920690939106809390060A
:100CE000809173068F5F80937306E0919206F09176
:100CF00093068081811107C08FEF9FEF9093610071
:100D00008093600010C0E0919206F09193060580F8
:100D1000F681E02D0680F781E02D8281938190930A
:100D200061008093600020917A0630917B0680916B
:100D30006000909161002817390708F44FC0E091D6
:100D40009206F09193068081811107C08FEF9FEF8B
:100D5000909361008093600041C0E0919206F09111
:100D600093060580F681E02DC681D7818A819B811B
:100D700020917A0630917B062817390728F4909342
:100D80006100809360002AC08E010E5F1F4FC80172
:100D90000E94DA008C899D89892B21F0CE010C9666
:100DA0000E94DA008E8990917806981710F480934B
:100DB000780690E09C01220F331F220F331F220F71
:100DC000331F820F931FB8018A55994F0E948200EA
:100DD000B6CF809175068F5F80937506DF91CF91B6
:100DE0001F910F910895FF920F931F93CF93DF935D
:100DF0000FB6F8940F928091760681508093760614
:100E00008091760681115AC080917C06811132C092
:100E100058C0E0918C06F0918D06C681D781CE0135
:100E20000C960E94DA008E010E5F1F4FC8010E94CF
:100E3000DA008E8990917806981710F480937806DE
:100E400090E09C01220F331F220F331F220F331F0C
:100E5000820F931FB8018A55994F0E9482009E8984
:100E6000E091D306F091D4068689981720F0FF24EC
:100E7000F39401C0F12C809187068111CACF809133
:100E80007506811108C00DC00E9449068091750643
:100E9000815080937506809175068111F5CFFF24EE
:100EA000F39481E0F81621F080917406813041F4CA
:100EB000109274060E94A40181E003C080E001C08A
:100EC00080E00F900FBEDF91CF911F910F91FF90A7
:100ED0000895CF93DF93EC01892BA9F00E9443067C
:100EE00080917A0690917B06C80FD91F8091D30616
:100EF0009091D40602960E94DA00CE010E9423054A
:100F00000E94F30601C080E0811102C00E94A4018A
:100F1000DF91CF910895CF93DF9380917D06882351
:100F200021F10E944306C0917E060E94F306CC2365
:100F3000E1F00FB6F8940F92E0918306F0918406E9
:100F4000C681D781CE0102960E94DA0080917C068C
:100F5000815080937C0680917D06815080937D0630
:100F60000F900FBECE010E949004DF91CF910895A3
:100F70000E948B07FDCF80917606882349F081E09F
:100F80008093740608958091780681508093780646
:100F90008091780690E0FC01EE0FFF1FEE0FFF1F1F
:100FA000EE0FFF1F8E0F9F1FFC01EA55F94F808146
:100FB000882349F38091780690E09C01220F331F2B
:100FC000220F331F220F331F280F391FD901AA55B3
:100FD000B94F1196ED91FC9112970280F381E02DAB
:100FE0001296FC93EE9311972755394FE217F307AA
:100FF00029F422813381FD0132832183FC01EE0F2C
:10100000FF1FEE0FFF1FEE0FFF1F8E0F9F1FFC0134
:10101000EA55F94F0180F281E02D86819781909306
:10102000D4068093D3060895CF93DF93EB016091AC
:10103000D3067091D406645F7F4F0E94A90080910F
:10104000D3069091D40602960E94DA0080917A0627
:1010500090917B068C0F9D1F0E942305DF91CF91FD
:1010600008950F931F93CF93DF93DC011596ED91B5
:10107000FC911697C681D7818E01045F1F4FC8016E
:101080000E94DA008091760681111CC00A50110975
:10109000C8010E94DA008E8990917806981710F4A2
:1010A0008093780690E09C01220F331F220F331F9C
:1010B000220F331F820F931FB8018A55994F0E9448
:1010C000820005C0B80187E896E00E9482009E89F0
:1010D000E091D306F091D4068689981710F081E04C
:1010E00001C080E0DF91CF911F910F910895209171
:1010F0007306FC01208320917A0630917B063283AF
:1011000021830895FC010FB6F8940F92908180918D
:101110007306981749F02181328180917A06909167
:101120007B0682179307F8F480917A0690917B06EC
:1011300041815281841B950BDB012D913C911197CC
:101140008217930790F4CF01E0917A06F0917B0625
:10115000BF01641B750B261B370B2D933C930E941C
:10116000770880E003C081E001C081E00F900FBEEE
:10117000089581E0809374060895CF93C82F60E0AE
:1011800080E10E94780B6C2F661F6627661F8FE137
:101190000E94780BC6FB662760F98EE10E94780BEF
:1011A000C5FB662760F98DE10E94780BC4FB6627BA
:1011B00060F98CE10E94780B61E082E10E94780B7B
:1011C0008FEC97E00197F1F700C0000060E082E14A
:1011D0000E94780B8FEC97E00197F1F700C00000B8
:1011E000C3FB662760F98FE10E94780BC2FB66277C
:1011F00060F98EE10E94780BC1FB662760F98DE1F2
:101200000E94780B6C2F61708CE10E94780B61E07A
:1012100082E10E94780B8FEC97E00197F1F700C014
:10122000000060E082E10E94780B8FEC97E001976C
:10123000F1F700C00000CF910895CF93C82F61E06F
:1012400080E10E94780B6C2F661F6627661F8FE176
:101250000E94780BC6FB662760F98EE10E94780B2E
:10126000C5FB662760F98DE10E94780BC4FB6627F9
:1012700060F98CE10E94780B61E082E10E94780BBA
:101280008FEC97E00197F1F700C0000060E082E189
:101290000E94780B8FEC97E00197F1F700C00000F7
:1012A000C3FB662760F98FE10E94780BC2FB6627BB
:1012B00060F98EE10E94780BC1FB662760F98DE131
:1012C0000E94780B6C2F61708CE10E94780B61E0BA
:1012D00082E10E94780B8FEC97E00197F1F700C054
:1012E000000060E082E10E94780B8FEC97E00197AC
:1012F000F1F700C00000CF9108952FE788E391E057
:10130000215080409040E1F700C0000082E00E9440
:10131000BD0888E20E94BD088CE00E94BD0881E003
:101320000E94BD088FEC97E00197F1F700C0000024
:1013300086E00E94BD08089581E00E94BD088FEC00
:1013400097E00197F1F700C0000008950E941D0981
:101350000895CF92DF92EF92FF921F93CF93DF9386
:10136000CDB7DEB72A970FB6F894DEBF0FBECDBF5C
:101370006B017C01611571058105910521F480E304
:101380000E94A6093BC099235CF48DE20E94A60945
:10139000F094E094D094C094C11CD11CE11CF11CC9
:1013A00010E017C0C701B6012AE030E040E050E08D
:1013B0000E94010DE1E0F0E0EC0FFD1FE10FF11DD7
:1013C00017FDFA95605D6083C22ED32EE42EF52EB4
:1013D0001F5FC114D104E104F10421F711500CC0C6
:1013E000E1E0F0E0EC0FFD1FE10FF11D17FDFA95B4
:1013F00080810E94A60911501F3F91F72A960FB6CF
:10140000F894DEBF0FBECDBFDF91CF911F91FF904B
:10141000EF90DF90CF9008950F931F93CF938C019F
:10142000C0E003C00E94A609CF5FF801EC0FF11DD8
:1014300080818111F7CFCF911F910F910895811174
:1014400005C080E8860F0E94BD080895813021F410
:1014500080EC860F0E94BD08089578940E94680B66
:1014600060E088E00E94800A60E08AE00E94800AD2
:1014700060E088E00E94780B60E088E00E94780BD2
:101480000E947D0908950E942D0A60E081E00E947B
:1014900003039093D8068093D706009739F020E095
:1014A00040E050E060E070E00E946303A12CB12CAA
:1014B000C12CD12CE12CF12C03E020E030E04AEFEC
:1014C00050E060E070E08EE69CE00E945A0502E089
:1014D00020E030E04AEF50E060E070E085EA9CE018
:1014E0000E945A0520E040E050E060E070E080910A
:1014F000D7069091D8060E94EE030E941806FFCFEF
:10150000982F9695969596958770613009F490C0BE
:1015100018F06230E9F10895913099F028F0923096
:10152000E9F0933041F108954AB321E030E0B90188
:1015300002C0660F771F8A95E2F7CB01842B8ABB26
:10154000089547B321E030E0B90102C0660F771F6C
:101550008A95E2F7CB01842B87BB089544B321E041
:1015600030E0B90102C0660F771F8A95E2F7CB0120
:10157000842B84BB089541B321E030E0B90102C05F
:10158000660F771F8A95E2F7CB01842B81BB089504
:101590009130C1F028F0923039F19330B9F10895CB
:1015A0004AB321E030E0B90102C0660F771F8A9587
:1015B000E2F7CB01962F909594239ABB9BB3892B8E
:1015C0008BBB089547B321E030E0B90102C0660F3C
:1015D000771F8A95E2F7CB01962F9095942397BBBE
:1015E00098B3892B88BB089544B321E030E0B9015A
:1015F00002C0660F771F8A95E2F7CB01962F909570
:10160000942394BB95B3892B85BB089541B321E006
:1016100030E0B90102C0660F771F8A95E2F7CB016F
:10162000962F9095942391BB92B3892B82BB0895FA
:101630009130C1F028F0923039F19330B9F108952A
:101640004AB321E030E0B90102C0660F771F8A95E6
:10165000E2F7CB018095942F98239ABB9BB3892303
:101660008BBB089547B321E030E0B90102C0660F9B
:10167000771F8A95E2F7CB018095942F982397BB2B
:1016800098B3892388BB089544B321E030E0B901C1
:1016900002C0660F771F8A95E2F7CB018095942FE1
:1016A000982394BB95B3892385BB089541B321E06A
:1016B00030E0B90102C0660F771F8A95E2F7CB01CF
:1016C0008095942F982391BB92B3892382BB089570
:1016D000CF93C0E009C0EC2FF0E0E959FF4F6081E3
:1016E0008C2F0E94800ACF5FC032A8F3CF9108955B
:1016F000982F9770869586958695813021F130F0E8
:101700008230F1F1833009F458C00895613069F4F2
:101710004BB321E030E0B90102C0660F771F9A9504
:10172000E2F7CB01842B8BBB08954BB321E030E073
:10173000B90102C0660F771F9A95E2F7CB01809539
:1017400084238BBB0895613069F448B321E030E015
:10175000B90102C0660F771F9A95E2F7CB01842B7F
:1017600088BB089548B321E030E0B90102C0660F9C
:10177000771F9A95E2F7CB018095842388BB089563
:10178000613069F445B321E030E0B90102C0660F71
:10179000771F9A95E2F7CB01842B85BB089545B35B
:1017A00021E030E0B90102C0660F771F9A95E2F799
:1017B000CB018095842385BB0895613069F442B3E1
:1017C00021E030E0B90102C0660F771F9A95E2F779
:1017D000CB01842B82BB089542B321E030E0B901F4
:1017E00002C0660F771F9A95E2F7CB01809584239C
:1017F00082BB0895282F277086958695869581301F
:1018000079F028F08230A9F08330E1F024C089B368
:1018100090E002C0959587952A95E2F7817008952A
:1018200086B390E002C0959587952A95E2F781707E
:10183000089583B390E002C0959587952A95E2F7C5
:101840008170089580B390E002C0959587952A95A0
:10185000E2F78170089580E00895982F977086953B
:1018600086958695813099F028F08230E9F08330B2
:1018700041F108954BB321E030E0B90102C0660F99
:10188000771F9A95E2F7CB0184278BBB089548B365
:1018900021E030E0B90102C0660F771F9A95E2F7A8
:1018A000CB01842788BB089545B321E030E0B9011E
:1018B00002C0660F771F9A95E2F7CB01842785BB9C
:1018C000089542B321E030E0B90102C0660F771FEE
:1018D0009A95E2F7CB01842782BB0895CF93DF93DB
:1018E000CDB7DEB727970FB6F894DEBF0FBECDBFDA
:1018F00087E0E7E8F0E0DE01119601900D928A950D
:10190000E1F720E04FEF5FEF60E070E08091D706F5
:101910009091D8060E94EE030E949C0960E080E04E
:101920000E941F0ACE0101960E940C0A60E081E02D
:101930000E941F0A6091D6066F5F6093D60670E022
:1019400080E090E00E94A909DCCFCF93DF9300D024
:1019500000D000D0CDB7DEB786E0EEE8F0E0DE01E3
:10196000119601900D928A95E1F70E949C0960E022
:1019700080E00E941F0ACE0101960E940C0A60E0DE
:1019800081E00E941F0A6091D50670E080E090E03F
:101990000E94A90980E00E94FA0B81112AC00E94CE
:1019A0009C0960E080E00E941F0ACE0101960E941F
:1019B0000C0A60E081E00E941F0A6091D5066F5F0B
:1019C0006093D50670E080E090E00E94A9098091C4
:1019D000D506843088F01092D50620E040E050E033
:1019E00060E070E08091D7069091D8060E94630372
:1019F00003C08AE00E942D0C88EC90E00E946907E9
:101A0000C9CF052E97FB1EF400940E94180D57FDB8
:101A100007D00E94200D07FC03D04EF40C94180D43
:101A200050954095309521953F4F4F4F5F4F08950A
:101A300090958095709561957F4F8F4F9F4F08953A
:101A4000A1E21A2EAA1BBB1BFD010DC0AA1FBB1FC2
:101A5000EE1FFF1FA217B307E407F50720F0A21B34
:101A6000B30BE40BF50B661F771F881F991F1A94A1
:101A700069F760957095809590959B01AC01BD01CB
:101A8000CF010895FB01DC0102C001900D9241508D
:101A90005040D8F70895DC0101C06D93415050408B
:101AA000E0F70895FB01DC014150504048F00190FF
:101AB0000D920020C9F701C01D9241505040E0F73F
:061AC0000895F894FFCF29
:101AC600FFFF49444C4500020102010000000000EE
:101AD60000000000000000000000000000000002FE
:101AE60002020200000000486967682052004C6F3D
:041AF6007720520003
:00000001FF
