:100000000C942A000C9447000C9447000C94470071
:100010000C9447000C9447000C9447000C94FD018D
:100020000C9447000C9447000C9447000C94470034
:100030000C9447000C9447000C9447000C94470024
:100040000C9447000C9447000C9447000C94470014
:100050000C94470011241FBECFE5D8E0DEBFCDBF12
:1000600010E0A0E6B0E0E8E6F0E102C005900D92F5
:10007000A838B107D9F722E0A8E8B0E001C01D9286
:10008000A13EB207E1F70E943A060C9432080C94A4
:100090000000CF93DF93EC010E94D40320918800ED
:1000A00030918900C9018C0F9D1F843F41E0940766
:1000B00058F42817390758F4E901C657DF4F9093D1
:1000C00089008093880005C0C0E0D0E002C0C0E095
:1000D000D0E00E948404CE01DF91CF91089508956D
:1000E000FC010396928381832FEF3FEF34832383B8
:1000F000968385839087878310820895FC011186FB
:1001000010860895CF93DF93FC01DB0121813281BA
:10011000E9018A819B8113969C938E93129781812A
:10012000928115969C938E9314978A819B81EC0102
:100130007D836C83E9017B836A8372836183199673
:10014000FC93EE93189780818F5F8083DF91CF912E
:100150000895CF93DF93EB01488159814F3F2FEFF3
:10016000520731F4DC011796ED91FC9118970DC000
:10017000FC01339603C00280F381E02DA281B3819C
:100180002D913C9142175307B0F7A281B381BB83F5
:10019000AA831596DC93CE931497FD83EC83D383C7
:1001A000C28399878887FC0120812F5F2083DF919C
:1001B000CF910895FC01A281B38184819581159628
:1001C0009C938E931497A481B58182819381139619
:1001D0009C938E931297A085B18511968D919C91D9
:1001E0001297E817F90731F48481958112969C9350
:1001F0008E931197118610868C9181508C9308955F
:100200001BBC8CE78ABD8BE08EBD89B7806189BF3E
:10021000089531E1FC013083319722E22083319748
:10022000A3E3A08331976083319770833197108265
:10023000319760E8608331971082319762E0608384
:10024000319763E06083319764E06083319765E0C4
:100250006083319766E06083319767E06083319710
:1002600068E06083319769E06083319760E1608383
:1002700031973083319732E13083319733E13083E6
:10028000319734E13083319735E13083319736E16E
:100290003083319737E13083319738E130833197BC
:1002A00039E13083319730E23083319731E2308366
:1002B00031972083319723E2208331974083319710
:1002C0005083319726E22083319727E220833197AC
:1002D00028E22083319729E22083319720E320838D
:1002E000319721E32083869708950E940001A09111
:1002F000DF02B091E002CD91CDBFDD91DEBFFF9175
:10030000EF91DF91CF91BF91AF919F918F917F91AD
:100310006F915F914F913F912F911F910F91FF909E
:10032000EF90DF90CF90BF90AF909F908F907F9095
:100330006F905F904F903F902F901F900F900FBE47
:100340000F90089581E008950F920FB6F8940F92E0
:100350001F9211242F923F924F925F926F927F9241
:100360008F929F92AF92BF92CF92DF92EF92FF92C5
:100370000F931F932F933F934F935F936F937F93AD
:100380008F939F93AF93BF93CF93DF93EF93FF939D
:10039000A091DF02B091E0020DB60D920EB60D9263
:1003A0000E944C05A091DF02B091E002CD91CDBF3B
:1003B000DD91DEBFFF91EF91DF91CF91BF91AF91C2
:1003C0009F918F917F916F915F914F913F912F916D
:1003D0001F910F91FF90EF90DF90CF90BF90AF9063
:1003E0009F908F907F906F905F904F903F902F9055
:1003F0001F900F900FBE0F9008951F920F920FB68F
:100400000F9211242F933F934F935F936F937F939A
:100410008F939F93AF93BF93EF93FF930E94DA0361
:10042000FF91EF91BF91AF919F918F917F916F91CC
:100430005F914F913F912F910F900FBE0F901F90A2
:100440001895CF93DF93EC018F89988D0E946F00F0
:10045000CE010E946F00DF91CF910895EF92FF923D
:100460000F931F93CF93DF937C01EB018DE290E01C
:100470000E9449008C01892BB9F0209721F4C70113
:100480000E94490001C0CE01F801908F878B009730
:1004900031F4C8010E946F0000E010E005C0A70120
:1004A00065EA70E00E941C08C801DF91CF911F919E
:1004B0000F91FF90EF9008951F93CF93DF93EC017E
:1004C000142F44E150E049960E9423081CA61530E1
:1004D00008F014E01E8BCE0102960E947E00CE0131
:1004E0000C960E947E00D987C88785E090E0811B2A
:1004F00091099D878C87DB8BCA8BDF91CF911F91F0
:100500000895CF93C0E010C08C2F90E09C01220F83
:10051000331F220F331F220F331F820F931F8E545E
:100520009D4F0E947000CF5FC53070F389EA92E062
:100530000E94700080EA92E00E94700083E992E0DD
:100540000E9470008AE892E00E94700089EA92E0BE
:1005500090939F0280939E0280EA92E090939D0286
:1005600080939C02CF910895CF93DF93EC01E091AB
:10057000DF02F091E0029383828380918602909162
:100580008702C817D90768F46091DF027091E00212
:1005900080919C0290919D026E5F7F4F0E94A90006
:1005A00017C06091DF027091E00280919E029091ED
:1005B0009F026E5F7F4F0E94A90080916000909122
:1005C0006100C817D90720F4D0936100C093600080
:1005D000DF91CF9108952F923F924F925F927F9239
:1005E0008F929F92AF92BF92CF92DF92EF92FF9243
:1005F0000F931F93CF93DF9300D000D0CDB7DEB71A
:100600009A8389834B015C834B831901702EB60159
:100610002501CA010E942E025C01009709F470C0F6
:10062000FC01C788D08C8B819C810197C80ED91E94
:100630000B811C819201472DB401C5010E945C020F
:10064000A10169817A81C6010E940901F5019183A6
:100650008083E114F10419F0F701B182A0820FB692
:10066000F8940F92809188028F5F80938802809126
:10067000DF029091E002892B59F4B092E002A0923F
:10068000DF0280918802813091F40E9481020FC0C4
:100690008091830281110BC0E091DF02F091E002B2
:1006A0008689781620F0B092E002A092DF02F50170
:1006B000868990918502981710F480938502909115
:1006C0007E029F5F90937E0290918402981710F4AF
:1006D0008093840290E0B5016E5F7F4F9C01220FF2
:1006E000331F220F331F220F331F820F931F8E548D
:1006F0009D4F0E9482000F900FBEF1E0F98302C06F
:100700008FEF8983E981E13069F480918302882346
:1007100049F0E091DF02F091E0028689871510F43C
:100720000E94A40189810F900F900F900F90DF918C
:10073000CF911F910F91FF90EF90DF90CF90BF90DE
:10074000AF909F908F907F905F904F903F902F90B1
:100750000895AF92BF92CF92DF92EF92FF920F93E4
:10076000A12CB12CC12CD12CE12CF12C00E020E0EB
:1007700030E042E350E062E670E087E495E00E94FA
:10078000EB02813049F4F89480938302109287023F
:10079000109286020E9475010F91FF90EF90DF90FA
:1007A000CF90BF90AF900895809182028F5F809329
:1007B000820208950F931F93CF93DF93809182025B
:1007C000811198C080918602909187020196909342
:1007D0008702809386028091860290918702892BFE
:1007E00099F580919E0290919F0220919C023091F8
:1007F0009D0230939F0220939E0290939D028093CE
:100800009C0280917F028F5F80937F02E0919E0225
:10081000F0919F028081811107C08FEF9FEF90932D
:1008200061008093600010C0E0919E02F0919F02F1
:100830000580F681E02D0680F781E02D828193818D
:10084000909361008093600020918602309187022E
:1008500080916000909161002817390708F44FC01B
:10086000E0919E02F0919F028081811107C08FEF7D
:100870009FEF909361008093600041C0E0919E02E1
:10088000F0919F020580F681E02DC681D7818A8193
:100890009B8120918602309187022817390728F41E
:1008A00090936100809360002AC08E010E5F1F4FFD
:1008B000C8010E94DA008C899D89892B21F0CE0124
:1008C0000C960E94DA008E8990918402981710F499
:1008D0008093840290E09C01220F331F220F331F6C
:1008E000220F331F820F931FB8018E549D4F0E9419
:1008F0008200B6CF809181028F5F80938102DF9169
:10090000CF911F910F910895FF920F931F93CF9353
:10091000DF930FB6F8940F928091820281508093FA
:10092000820280918202811158C0809188028111D7
:1009300032C056C0E0919802F0919902C681D781E9
:10094000CE010C960E94DA008E010E5F1F4FC80187
:100950000E94DA008E8990918402981710F4809397
:10096000840290E09C01220F331F220F331F220FBD
:10097000331F820F931FB8018E549D4F0E94820037
:100980009E89E091DF02F091E0028689981720F0BD
:10099000FF24F39401C0F12C809193028111CACFFE
:1009A00080918102811108C00BC00E94DA038091FE
:1009B0008102815080938102809181028111F5CF63
:1009C00081E0F81621F080918002813041F410928C
:1009D00080020E94A40181E003C080E001C080E0A9
:1009E0000F900FBEDF91CF911F910F91FF9008954F
:1009F000CF93DF93EC01892BA9F00E94D40380915F
:100A0000860290918702C80FD91F8091DF029091D2
:100A1000E00202960E94DA00CE010E94B4020E9417
:100A2000840401C080E0811102C00E94A401DF9112
:100A3000CF910895CF93DF9380918902882321F18C
:100A40000E94D403C0918A020E948404CC23E1F066
:100A50000FB6F8940F92E0918F02F0919002C68148
:100A6000D781CE0102960E94DA00809188028150DF
:100A700080938802809189028150809389020F902F
:100A80000FBECE010E942102DF91CF9108950E94F6
:100A90001A050E94A401FBCF80918202882349F0AD
:100AA00081E0809380020895809184028150809338
:100AB00084028091840290E0FC01EE0FFF1FEE0F94
:100AC000FF1FEE0FFF1F8E0F9F1FFC01EE54FD4F07
:100AD0008081882349F38091840290E09C01220F59
:100AE000331F220F331F220F331F280F391FD90145
:100AF000AE54BD4F1196ED91FC9112970280F38197
:100B0000E02D1296FC93EE9311972B543D4FE21774
:100B1000F30729F422813381FD0132832183FC0113
:100B2000EE0FFF1FEE0FFF1FEE0FFF1F8E0F9F1F19
:100B3000FC01EE54FD4F0180F281E02D868197810A
:100B40009093E0028093DF020895CF93C82F60E076
:100B500080E10E9448076C2F661F6627661F8FE1A1
:100B60000E944807C6FB662760F98EE10E9448078D
:100B7000C5FB662760F98DE10E944807C4FB662724
:100B800060F98CE10E94480761E082E10E94480719
:100B90008FEC97E00197F1F700C0000060E082E180
:100BA0000E9448078FEC97E00197F1F700C0000022
:100BB000C3FB662760F98FE10E944807C2FB6627E6
:100BC00060F98EE10E944807C1FB662760F98DE15C
:100BD0000E9448076C2F61708CE10E94480761E019
:100BE00082E10E9448078FEC97E00197F1F700C07F
:100BF000000060E082E10E9448078FEC97E00197D7
:100C0000F1F700C00000CF9108952FE788E391E04D
:100C1000215080409040E1F700C0000082E00E9437
:100C2000A50588E20E94A5058CE00E94A50581E04B
:100C30000E94A5058FEC97E00197F1F700C0000036
:100C400086E00E94A505089578940E94380760E028
:100C500088E00E94500660E08AE00E94500660E052
:100C600088E00E94480760E08AE00E9448070E94EE
:100C7000050608950E942406A12CB12CC12CD12C6C
:100C8000E12CF12C02E020E030E044E650E060E0AE
:100C900070E08BE098E00E94EB020E94A903FFCF76
:100CA000982F9695969596958770613009F490C027
:100CB00018F06230E9F10895913099F028F09230FF
:100CC000E9F0933041F108954AB321E030E0B901F1
:100CD00002C0660F771F8A95E2F7CB01842B8ABB8F
:100CE000089547B321E030E0B90102C0660F771FD5
:100CF0008A95E2F7CB01842B87BB089544B321E0AA
:100D000030E0B90102C0660F771F8A95E2F7CB0188
:100D1000842B84BB089541B321E030E0B90102C0C7
:100D2000660F771F8A95E2F7CB01842B81BB08956C
:100D30009130C1F028F0923039F19330B9F1089533
:100D40004AB321E030E0B90102C0660F771F8A95EF
:100D5000E2F7CB01962F909594239ABB9BB3892BF6
:100D60008BBB089547B321E030E0B90102C0660FA4
:100D7000771F8A95E2F7CB01962F9095942397BB26
:100D800098B3892B88BB089544B321E030E0B901C2
:100D900002C0660F771F8A95E2F7CB01962F9095D8
:100DA000942394BB95B3892B85BB089541B321E06F
:100DB00030E0B90102C0660F771F8A95E2F7CB01D8
:100DC000962F9095942391BB92B3892B82BB089563
:100DD0009130C1F028F0923039F19330B9F1089593
:100DE0004AB321E030E0B90102C0660F771F8A954F
:100DF000E2F7CB018095942F98239ABB9BB389236C
:100E00008BBB089547B321E030E0B90102C0660F03
:100E1000771F8A95E2F7CB018095942F982397BB93
:100E200098B3892388BB089544B321E030E0B90129
:100E300002C0660F771F8A95E2F7CB018095942F49
:100E4000982394BB95B3892385BB089541B321E0D2
:100E500030E0B90102C0660F771F8A95E2F7CB0137
:100E60008095942F982391BB92B3892382BB0895D8
:100E7000CF93C0E009C0EC2FF0E0E959FF4F60814B
:100E80008C2F0E945006CF5FC032A8F3CF910895F7
:100E9000982F9770869586958695813021F130F050
:100EA0008230F1F1833009F458C00895613069F45B
:100EB0004BB321E030E0B90102C0660F771F9A956D
:100EC000E2F7CB01842B8BBB08954BB321E030E0DC
:100ED000B90102C0660F771F9A95E2F7CB018095A2
:100EE00084238BBB0895613069F448B321E030E07E
:100EF000B90102C0660F771F9A95E2F7CB01842BE8
:100F000088BB089548B321E030E0B90102C0660F04
:100F1000771F9A95E2F7CB018095842388BB0895CB
:100F2000613069F445B321E030E0B90102C0660FD9
:100F3000771F9A95E2F7CB01842B85BB089545B3C3
:100F400021E030E0B90102C0660F771F9A95E2F701
:100F5000CB018095842385BB0895613069F442B349
:100F600021E030E0B90102C0660F771F9A95E2F7E1
:100F7000CB01842B82BB089542B321E030E0B9015C
:100F800002C0660F771F9A95E2F7CB018095842304
:100F900082BB0895982F97708695869586958130A7
:100FA00099F028F08230E9F0833041F108954BB395
:100FB00021E030E0B90102C0660F771F9A95E2F791
:100FC000CB0184278BBB089548B321E030E0B90101
:100FD00002C0660F771F9A95E2F7CB01842788BB82
:100FE000089545B321E030E0B90102C0660F771FD4
:100FF0009A95E2F7CB01842785BB089542B321E09F
:1010000030E0B90102C0660F771F9A95E2F7CB0175
:10101000842782BB089588E00E94CA072FE78AE1EF
:1010200096E0215080409040E1F700C0000084E647
:1010300090E00E94F804EFCFDC0101C06D934150B5
:101040005040E0F70895FB01DC014150504048F06A
:1010500001900D920020C9F701C01D9241505040EF
:08106000E0F70895F894FFCFBA
:10106800FFFF49444C450001010201000000000057
:101078000000000000000000000000000000000266
:0810880002020200000000005A
:00000001FF
