:100000000C942A000C9447000C9447000C94470071
:100010000C9447000C9447000C9447000C94CD18A6
:100020000C9447000C9447000C9447000C94470034
:100030000C9447000C9447000C9447000C94470024
:100040000C9447000C9447000C9447000C94470014
:100050000C94470011241FBECFE5D8E0DEBFCDBF12
:1000600011E0A0E6B0E0ECE5F3E402C005900D92EB
:10007000A838B107D9F715E0A8E8B1E001C01D9292
:10008000AC3AB107E1F70E94CE200C94AC210C945D
:100090000000A2E7B0E0EFE4F0E00C945621982EC7
:1000A000892E712E88E0FE013196DF01682E1D92A7
:1000B0006A94E9F729833A834B835C836D837E835B
:1000C0009F829887FE013996DF011D928A95E9F794
:1000D000A986BA86CB86DC86ED86FE860F87188BCE
:1000E0008D819E81AF81B885B7FD07C0E1961CAEBA
:1000F0001DAE1EAE1FAEE19764C0219581E01216C1
:1001000008F080E0319591E0131608F090E0B32FED
:10011000B81B81E03B1708F080E0982B419531E057
:10012000141608F030E0A42FA91B81E04A1708F04C
:1001300080E0382B519591E0151608F090E0F52FEE
:10014000F31B81E05F1708F080E0982B619531E0A8
:10015000161608F030E0E62FE91B81E06E1708F074
:1001600080E0382B719541E0171608F040E0572FDA
:10017000531B81E0751708F080E0482B892D81958D
:1001800091E0181608F090E0682E641A462D31E0D0
:10019000861508F030E0932B882D8195891B2983E3
:1001A000BA83AB83FC83ED835E834F8388872FEF15
:1001B0003FEF4FEF5FEFE1962CAF3DAF4EAF5FAF3C
:1001C000E1978D859E85AF85B889B7FF6AC0E196B6
:1001D0004CAD5DAD6EAD7FADE197409550956095AE
:1001E0007095E1964CAF5DAF6EAF7FAFE197A19494
:1001F00081E01A1408F080E0B19491E01B1408F03B
:1002000090E06B2D681B81E0B61608F080E0982B1B
:10021000C19421E01C1408F020E05C2D591B81E002
:10022000C51608F080E0282BD19491E01D1408F049
:1002300090E04D2D421B81E0D41608F080E0982B11
:10024000E19421E01E1408F020E03E2D391B81E0EE
:10025000E31608F080E0282BF19491E01F1408F0D9
:1002600090E07F2D721B272F81E0F71608F080E0C9
:10027000982B019511E0101608F010E0802F891BD3
:10028000982F81E0091708F080E0182B872D8195C1
:10029000811BA9866A875B874C873D872E879F874E
:1002A000888B99812A813B814C815D816E817F8120
:1002B000A885B9851A850B85FC84ED84DE84CF84FE
:1002C000B88888E0E1E18E2E912C8C0E9D1EF40101
:1002D000682E11926A94E9F7998B2A8B3B8B4C8B91
:1002E0005D8B6E8B7F8BA88F9E01275E3F4FF90140
:1002F00011928A95E9F7B98F1A8F0B8FFC8EED8ECC
:10030000DE8ECF8EB8A2298C3A8C4B8C5C8CED8C17
:10031000FE8C0F8D18A169887A888B889C8821961D
:100320006CAE7DAE8EAE9FAE21976D887E888F8835
:10033000988CE114F1040105110509F0D9C3621488
:1003400073048404950408F057C100E0201600E00F
:10035000300601E0400600E0500688F41FEF211649
:1003600031044104510439F030F048E0E42EF12C1E
:10037000012D112D18C0EE24FF24870114C020E0A8
:10038000221620E0320620E0420621E0520630F03C
:1003900038E1E32EF12C012D112D05C020E1E22ED4
:1003A000F12C012D112DD201C1010E2C04C0B695E6
:1003B000A795979587950A94D2F78B599F4FDC01A3
:1003C0002C9180E290E0A0E0B0E08E199F09A00B94
:1003D000B10B7C018D01E21AF10801091109E11448
:1003E000F10401051105D1F10E2C04C0220C331CBF
:1003F000441C551C0A94D2F7A40193010E2C04C08E
:10040000220F331F441F551F0A94D2F780E290E059
:100410008E199F0921966CAC7DAC8EAC9FAC219758
:1004200004C096948794779467948A95D2F7622A49
:10043000732A842A952A2196ACACBDACCEACDFAC35
:10044000219704C0AA0CBB1CCC1CDD1CEA94D2F77B
:100450002196ACAEBDAECEAEDFAE21976201EE24EA
:10046000FF242996CCAEDDAEEEAEFFAE2997920109
:100470008101207030702D960CAF1DAF2EAF3FAFB5
:100480002D97C401B301A70196010E9434217B017D
:100490008C01C401B30129962CAD3DAD4EAD5FADCD
:1004A00029970E943421C901DA013C014D01C401A0
:1004B000B3012D962CAD3DAD4EAD5FAD2D970E9495
:1004C00015219B01AC018701FF24EE242196ACACE1
:1004D000BDACCEACDFAC2197C601AA27BB27570124
:1004E0006801A82AB92ACA2ADB2AA216B306C406BA
:1004F000D506E0F408946108710881089108A20CFF
:10050000B31CC41CD51CA214B304C404D50470F0DD
:10051000A216B306C406D50648F40894610871080B
:1005200081089108A20CB31CC41CD51CA21AB30AE2
:10053000C40AD50AC601B50129962CAD3DAD4EAD14
:100540005FAD29970E9434217B018C01C601B50162
:1005500029962CAD3DAD4EAD5FAD29970E9434215B
:10056000C901DA015C016D01C601B5012D962CAD02
:100570003DAD4EAD5FAD2D970E9415219B01AC01A5
:100580008701FF24EE2421968CAD9DADAEADBFADAD
:100590002197A070B070E82AF92A0A2B1B2BE216CB
:1005A000F30604071507C0F40894A108B108C108B0
:1005B000D108E20CF31C041D151DE214F30404051C
:1005C000150550F0E216F3060407150728F4089401
:1005D000A108B108C108D108D3019927882786014D
:1005E0007501E82AF92A0A2B1B2B2596ECAEFDAEE5
:1005F0000EAF1FAF2597EBC4211431044104510401
:1006000071F461E070E080E090E020E030E040E0F4
:1006100050E00E943421C901DA011C012D0100E0E3
:10062000201600E0300601E0400600E0500688F4A5
:100630001FEF211631044104510431F028F048E045
:1006400050E060E070E017C040E050E060E070E033
:1006500012C020E0221620E0320620E0420621E00F
:10066000520628F048E150E060E070E004C040E14C
:1006700050E060E070E0D201C101042E04C0B695E4
:10068000A795979587950A94D2F78B599F4FDC01D0
:100690002C91E0E2EE2EF12C012D112DD801C70195
:1006A000841B950BA60BB70B821B9109A109B109FD
:1006B0000097A105B10561F464015301A218B308C4
:1006C000C408D50831E0632E712C812C912C24C1F3
:1006D000E3968FAFE397082E04C0220C331C441C12
:1006E000551C0A94D2F7EE2DE81B640153010E2E1F
:1006F00004C0D694C794B794A7940A94D2F7A401DF
:100700009301E3960FACE39704C0220F331F441FFD
:10071000551F0A94D2F721966CAC7DAC8EAC9FAC81
:1007200021970E2E04C096948794779467940A9428
:10073000D2F784017301E22AF32A042B152BE9AEC8
:10074000FAAE0BAF1CAF32018824992492018101CB
:100750002070307061960CAF1DAF2EAF3FAF619728
:10076000C601B501A40193010E9434217B018C01D3
:10077000C601B501A40193010E943421C901DA0127
:1007800065968CAF9DAFAEAFBFAF6597BC01CD0195
:1007900061962CAD3DAD4EAD5FAD61970E941521C8
:1007A0009B01AC018701FF24EE24A9ACBAACCBAC11
:1007B000DCACC601AA27BB275C016D01AE28BF28AF
:1007C000C02AD12AA216B306C406D50660F56596DE
:1007D0006CAD7DAD8EAD9FAD659761507040804032
:1007E000904065966CAF7DAF8EAF9FAF6597A20CC2
:1007F000B31CC41CD51CA214B304C404D50498F0C3
:10080000A216B306C406D50670F46150704080404D
:10081000904065966CAF7DAF8EAF9FAF6597A20C91
:10082000B31CC41CD51CA21AB30AC40AD50AC6013B
:10083000B501A40193010E9434217B018C01C60102
:10084000B501A40193010E943421C901DA013C01E0
:100850004D01C401B30161962CAD3DAD4EAD5FAD10
:1008600061970E9415219B01AC018701FF24EE24B2
:1008700089AD9AADABADBCADA070B0705701680149
:10088000A82AB92ACA2ADB2AA216B306C406D506A4
:10089000E0F408946108710881089108A20CB31C67
:1008A000C41CD51CA214B304C404D50470F0A21651
:1008B000B306C406D50648F4089461087108810897
:1008C0009108A20CB31CC41CD51C21968CAD9DAD07
:1008D000AEADBFAD2197E3960FACE39704C0880F90
:1008E000991FAA1FBB1F0A94D2F721968CAF9DAF08
:1008F000AEAFBFAF2197A21AB30AC40AD50A659654
:10090000ECACFDAC0EAD1FAD6597D70199278827DC
:10091000682A792A8A2A9B2A820122273327699604
:100920000CAF1DAF2EAF3FAF6997A2019101407090
:1009300050706D962CAF3DAF4EAF5FAF6D97C60157
:10094000B50169962CAD3DAD4EAD5FAD69970E9486
:1009500034217B018C01C601B50169962CAD3DADFA
:100960004EAD5FAD69970E943421C901DA01A196AD
:100970008CAF9DAFAEAFBFAFA197BC01CD016D965F
:100980002CAD3DAD4EAD5FAD6D970E9415219B0125
:10099000AC018701FF24EE242196ACACBDACCEACFB
:1009A000DFAC2197C601AA27BB2757016801A82AF7
:1009B000B92ACA2ADB2AA216B306C406D50660F5F0
:1009C000A1966CAD7DAD8EAD9FADA197615070408D
:1009D00080409040A1966CAF7DAF8EAF9FAFA19746
:1009E000A20CB31CC41CD51CA214B304C404D504AB
:1009F00098F0A216B306C406D50670F46150704094
:100A000080409040A1966CAF7DAF8EAF9FAFA19715
:100A1000A20CB31CC41CD51CA21AB30AC40AD50A62
:100A2000C601B50169962CAD3DAD4EAD5FAD699780
:100A30000E9434217B018C01C601B50169962CAD61
:100A40003DAD4EAD5FAD69970E943421C901DA0119
:100A50005C016D01C601B5016D962CAD3DAD4EAD8D
:100A60005FAD6D970E9415219B01AC018701FF24AA
:100A7000EE2421968CAD9DADAEADBFAD2197A0709B
:100A8000B070E82AF92A0A2B1B2BE216F30604079A
:100A90001507C0F40894A108B108C108D108E20CF8
:100AA000F31C041D151DE214F3040405150550F094
:100AB000E216F3060407150728F40894A108B10804
:100AC000C108D108A196ECACFDAC0EAD1FADA1974D
:100AD000D7019927882796018501082B192B2A2BE6
:100AE0003B2B25960CAF1DAF2EAF3FAF259772C2A3
:100AF0006E147F048006910608F45FC220E0E216BF
:100B000020E0F20621E0020720E0120788F43FEF20
:100B1000E316F1040105110531F028F048E050E03A
:100B200060E070E017C040E050E060E070E012C0AC
:100B300040E0E41640E0F40640E0040741E014071A
:100B400028F048E150E060E070E004C040E150E08F
:100B500060E070E0D801C701042E04C0B695A795E7
:100B6000979587950A94D2F78B599F4FDC012C916A
:100B700030E2A32EB12CC12CD12CD601C501841B8F
:100B8000950BA60BB70B821B9109A109B109009720
:100B9000A105B10599F4E614F7040805190508F450
:100BA000FEC121966CAC7DAC8EAC9FAC21976214DB
:100BB00073048404950408F0F2C1FFC1E2968FAF7C
:100BC000E297082E04C0EE0CFF1C001F111F0A94B0
:100BD000D2F76A2D681BD201C101062E04C0B6955A
:100BE000A795979587950A94D2F75C016D01AE2879
:100BF000BF28C02AD12AADAABEAACFAAD8AE7201F8
:100C00006101E2960FACE29704C0CC0CDD1CEE1C37
:100C1000FF1C0A94D2F7C9AADAAAEBAAFCAA6401BB
:100C20005301062E04C0D694C794B794A7940A948F
:100C3000D2F7D401C301E2960FACE29704C0880F4B
:100C4000991FAA1FBB1F0A94D2F72196ECACFDACEA
:100C50000EAD1FAD219704C016950795F794E79444
:100C60006A95D2F737014801682A792A8A2A9B2A8D
:100C70006DA67EA68FA698AAEDA8FEA80FA918AD0E
:100C80003801882499249801870120703070A59636
:100C90000CAF1DAF2EAF3FAFA597C601B501A401A4
:100CA00093010E9434217B018C01C601B501A4018E
:100CB00093010E943421C901DA011C012D01C201F6
:100CC000B101A5962CAD3DAD4EAD5FADA5970E948F
:100CD00015219B01AC018701FF24EE24ADA4BEA425
:100CE000CFA4D8A8C601AA27BB2757016801A82A04
:100CF000B92ACA2ADB2AA216B306C406D50600F50D
:100D000008942108310841085108EDA8FEA80FA950
:100D100018ADAE0CBF1CC01ED11EAE14BF04C00661
:100D2000D10670F0A216B306C406D50648F408949E
:100D30002108310841085108AE0CBF1CC01ED11E4D
:100D4000A21AB30AC40AD50AC601B501A4019301C7
:100D50000E9434217B018C01C601B501A4019301DD
:100D60000E943421C901DA013C014D01C401B301E3
:100D7000A5962CAD3DAD4EAD5FADA5970E9415215A
:100D80009B01AC018701FF24EE248DA59EA5AFA594
:100D9000B8A9A070B07057016801A82AB92ACA2A58
:100DA000DB2AA216B306C406D50600F5089461082E
:100DB0007108810891086DA97EA98FA998ADA60E2A
:100DC000B71EC81ED91EA616B706C806D90670F0EB
:100DD000A216B306C406D50648F408946108710843
:100DE00081089108A60EB71EC81ED91ED601C501DE
:100DF000821B930BA40BB50B89A79AA7ABA7BCA723
:100E0000D1019927882764015301A82AB92ACA2A3F
:100E1000DB2A2596ACAEBDAECEAEDFAE2597860101
:100E200075012FEF3FEF40E050E0E222F322042370
:100E30001523A60166277727AD964CAF5DAF6EAF41
:100E40007FAFAD97A9A8BAA8CBA8DCA86FEF7FEFBA
:100E500080E090E0A622B722C822D92289A99AA9C7
:100E6000ABA9BCA91D0144245524C801B701A601A2
:100E700095010E941521A9966CAF7DAF8EAF9FAFF3
:100E8000A997C801B701A20191010E9415213B0158
:100E90004C01AD966CAD7DAD8EAD9FADAD97A6010D
:100EA00095010E9415217B018C01AD966CAD7DAD45
:100EB0008EAD9FADAD97A20191010E9415215B01FE
:100EC0006C01A8019701260D371D481D591DA996D3
:100ED0006CAC7DAC8EAC9FACA997C401AA27BB2794
:100EE000280F391F4A1F5B1F2E153F05400751076A
:100EF00048F4E12CF12C61E0062F112DAE0CBF1C43
:100F0000C01ED11ECA01AA27BB27BC01CD016A0D94
:100F10007B1D8C1D9D1D69A47AA48BA49CA46616C0
:100F200077068806990650F16615770588059905B4
:100F300009F04DC0D90199278827A9962CAD3DAD60
:100F40004EAD5FADA99740705070820F931FA41FE4
:100F5000B51F21962CAD3DAD4EAD5FAD2197E2960C
:100F60000FACE29704C0220F331F441F551F0A9491
:100F7000D2F7281739074A075B0748F525960CADC5
:100F80001DAD2EAD3FAD25970150104020403040A3
:100F900025960CAF1DAF2EAF3FAF259718C0662426
:100FA0007724430121E030E040E050E025962CAF6B
:100FB0003DAF4EAF5FAF25970DC066247724430148
:100FC00025961CAE1DAE1EAE1FAE259703C066242F
:100FD00077244301FE01B19688E0DF011D928A95D6
:100FE000E9F72596ACACBDACCEACDFAC2597A9A299
:100FF000BAA2CBA2DCA26DA27EA28FA298A6229654
:101000002FAD22973AA14BA15CA1662D7EA1DFA056
:1010100098A5E196ECACFDAC0EAD1FADE197E114E7
:10102000F1040105110509F456C0219581E012165D
:1010300008F080E03195E1E0131608F0E0E0932E2F
:10104000981A81E0391508F080E0E82B4195F1E02D
:10105000141608F0F0E0A42EAE1A81E04A1508F04C
:1010600080E0F82B5195E1E0151608F0E0E0B52E90
:10107000BF1A81E05B1508F080E0E82B6195F1E094
:10108000161608F0F0E0A62FAE1B81E06A1708F0F4
:1010900080E0F82B7195E1E0171608F0E0E0C72E2C
:1010A000CF1A81E07C1508F080E0E82B8D2D81952A
:1010B000F1E0181608F0F0E0D82EDE1AE1E08D1508
:1010C00008F0E0E0FE2B892F8195392DA5016A2FCC
:1010D0007C2D982F9F1B8D2DCE58DF4FE2E10C9475
:1010E0007221A7E7B0E0E7E7F8E00C945621982ECC
:1010F000892E712E88E0FE013196DF01682E1D9247
:101100006A94E9F729833A834B835C836D837E83FA
:101110009F829887FE013996DF011D928A95E9F733
:10112000A986BA86CB86DC86ED86FE860F87188B6D
:101130008D819E81AF81B885B7FD07C0E1961CAE59
:101140001DAE1EAE1FAEE19764C0219581E0121660
:1011500008F080E0319591E0131608F090E0B32F8D
:10116000B81B81E03B1708F080E0982B419531E0F7
:10117000141608F030E0A42FA91B81E04A1708F0EC
:1011800080E0382B519591E0151608F090E0F52F8E
:10119000F31B81E05F1708F080E0982B619531E048
:1011A000161608F030E0E62FE91B81E06E1708F014
:1011B00080E0382B719541E0171608F040E0572F7A
:1011C000531B81E0751708F080E0482B892D81952D
:1011D00091E0181608F090E0682E641A462D31E070
:1011E000861508F030E0932B882D8195891B298383
:1011F000BA83AB83FC83ED835E834F8388872FEFB5
:101200003FEF4FEF5FEFE1962CAF3DAF4EAF5FAFDB
:10121000E1978D859E85AF85B889B7FF5AC0A194A7
:1012200081E01A1408F080E0B19491E01B1408F0FA
:1012300090E06B2D681B81E0B61608F080E0982BDB
:10124000C19421E01C1408F020E05C2D591B81E0C2
:10125000C51608F080E0282BD19491E01D1408F009
:1012600090E04D2D421B81E0D41608F080E0982BD1
:10127000E19421E01E1408F020E03E2D391B81E0AE
:10128000E31608F080E0282BF19491E01F1408F099
:1012900090E07F2D721B272F81E0F71608F080E089
:1012A000982B019511E0101608F010E0802F891B93
:1012B000982F81E0091708F080E0182B872D819581
:1012C000811BA9866A875B874C873D872E879F870E
:1012D000888B99812A813B814C815D816E817F81E0
:1012E000A885B9851A850B85FC84ED84DE84CF84BE
:1012F000B88888E0E9E18E2E912C8C0E9D1EF401B9
:10130000682E11926A94E9F7998F2A8F3B8F4C8F40
:101310005D8F6E8F7F8FA8A39E012F5D3F4FF901D8
:1013200011928A95E9F7B9A31AA30BA3FCA2EDA227
:10133000DEA2CFA2B8A629A03AA04BA05CA0ADA087
:10134000BEA0CFA0D8A4498D5A8D6B8D7C8DE5961B
:101350004FAFE597E6965FAFE697E7966FAFE797F3
:10136000E8967FAFE897E8966CAC7DAC8EAC9FAC0E
:10137000E8972D966CAE7DAE8EAE9FAE2D978D8D7F
:101380009E8D2F8D38A13C01490161966CAE7DAEDA
:101390008EAE9FAE6197A114B104C104D10409F0CF
:1013A00028C3621473048404950408F00EC100E09D
:1013B000201600E0300601E0400600E0500688F408
:1013C0001FEF211631044104510439F030F088E058
:1013D000E82EF12C012D112D18C0EE24FF248701D9
:1013E00014C020E0221620E0320620E0420621E070
:1013F000520630F0B8E1EB2EF12C012D112D05C075
:10140000A0E1EA2EF12C012D112DD201C1010E2CEB
:1014100004C0B695A795979587950A94D2F78B59EE
:101420009F4FDC012C9180E290E0A0E0B0E08E19AB
:101430009F09A00BB10B5C016D01A21AB108C10894
:10144000D1086596ACAEBDAECEAEDFAE6597A11449
:10145000B104C104D10409F445C062966FAD62972E
:10146000062E04C0220C331C441C551C0A94D2F7CF
:10147000A4019301062E04C0220F331F441F551FE1
:101480000A94D2F780E290E08A199B09E896CCACE6
:10149000DDACEEACFFACE89704C0F694E794D794CB
:1014A000C7948A95D2F787017601E22AF32A042BA2
:1014B000152B6196ECAEFDAE0EAF1FAF6197E896AF
:1014C0000CAD1DAD2EAD3FADE89704C0000F111F50
:1014D000221F331F6A95D2F72D960CAF1DAF2EAF8A
:1014E0003FAF2D97320188249924A20191014070C9
:1014F000507069962CAF3DAF4EAF5FAF6997619664
:101500006CAD7DAD8EAD9FAD6197A40193010E943E
:1015100034217B018C0161966CAD7DAD8EAD9FADAC
:101520006197A40193010E943421CA01B90169960F
:101530002CAD3DAD4EAD5FAD69970E9415219B016D
:10154000AC018701FF24EE242D96ACACBDACCEAC33
:10155000DFAC2D97C601AA27BB2757016801A82A2F
:10156000B92ACA2ADB2AA216B306C406D50690F405
:10157000A20CB31CC41CD51CA214B304C404D5040F
:1015800048F0A216B306C406D50620F4A20CB31C7C
:10159000C41CD51CA21AB30AC40AD50AC601B501D7
:1015A000A40193010E9434217B018C01C601B50185
:1015B000A40193010E943421CA01B90169962CAD9E
:1015C0003DAD4EAD5FAD6997C8C1211431044104F2
:1015D000510471F461E070E080E090E020E030E0E0
:1015E00040E050E00E943421C901DA011C012D01C4
:1015F00000E0201600E0300601E0400600E0500662
:1016000088F41FEF211631044104510439F030F001
:1016100068E0E62EF12C012D112D18C0EE24FF24D8
:10162000870114C020E0221620E0320620E04206A6
:1016300021E0520630F058E1E52EF12C012D112D5C
:1016400005C040E1E42EF12C012D112DD201C10184
:101650000E2C04C0B695A795979587950A94D2F756
:101660008B599F4FDC012C9130E2A32EB12CC12C61
:10167000D12CD601C5018E199F09A00BB10B7C019D
:101680008D01E21AF108010911096596ECAEFDAE73
:101690000EAF1FAF6597E114F1040105110539F490
:1016A00064015301A218B308C408D508ECC06296BF
:1016B000FFAC6297E496FFAEE4970F2C04C0220CB7
:1016C000331C441C551C0A94D2F78A2D8F196401CF
:1016D0005301082E04C0D694C794B794A7940A94D3
:1016E000D2F7A401930104C0220F331F441F551FDA
:1016F000FA94D2F7E8966CAC7DAC8EAC9FACE897D0
:1017000004C096948794779467948A95D2F784015D
:101710007301E22AF32A042B152B2996ECAEFDAEB9
:101720000EAF1FAF299732018824992492018101BD
:10173000207030706D960CAF1DAF2EAF3FAF6D9720
:10174000C601B501A40193010E9434217B018C01E3
:10175000C601B501A40193010E943421CA01B90157
:101760006D962CAD3DAD4EAD5FAD6D970E941521D0
:101770009B01AC018701FF24EE242996ACACBDACE3
:10178000CEACDFAC2997C601AA27BB275C016D014F
:10179000AE28BF28C02AD12AA216B306C406D50691
:1017A00090F4A20CB31CC41CD51CA214B304C40432
:1017B000D50448F0A216B306C406D50620F4A20C40
:1017C000B31CC41CD51CA21AB30AC40AD50AC6018C
:1017D000B501A40193010E9434217B018C01C60153
:1017E000B501A40193010E943421CA01B9016D968B
:1017F0002CAD3DAD4EAD5FAD6D970E9415219B01A7
:10180000AC018701FF24EE2429968CAD9DADAEADD1
:10181000BFAD2997A070B07057016801A82AB92AF6
:10182000CA2ADB2AA216B306C406D50690F4A20C77
:10183000B31CC41CD51CA214B304C404D50448F0C2
:10184000A216B306C406D50620F4A20CB31CC41C11
:10185000D51CE896ECACFDAC0EAD1FADE897E49658
:101860000FACE49704C0EE0CFF1C001F111F0A947C
:10187000D2F72D96ECAEFDAE0EAF1FAF2D97A21A8C
:10188000B30AC40AD50A320188249924920181013D
:1018900020703070A1960CAF1DAF2EAF3FAFA19757
:1018A000C601B501A40193010E9434217B018C0182
:1018B000C601B501A40193010E943421CA01B901F6
:1018C000A1962CAD3DAD4EAD5FADA1970E94152107
:1018D0009B01AC018701FF24EE242D96ACACBDAC7E
:1018E000CEACDFAC2D97C601AA27BB2757016801F4
:1018F000A82AB92ACA2ADB2AA216B306C406D50624
:1019000090F4A20CB31CC41CD51CA214B304C404D0
:10191000D50448F0A216B306C406D50620F4A20CDE
:10192000B31CC41CD51CA21AB30AC40AD50AC6012A
:10193000B501A40193010E9434217B018C01C601F1
:10194000B501A40193010E943421CA01B901A196F5
:101950002CAD3DAD4EAD5FADA1970E9415219B0111
:10196000AC018701FF24EE242D968CAD9DADAEAD6C
:10197000BFAD2D97A070B070E82AF92A0A2B1B2B57
:10198000E216F3060407150790F4E20CF31C041D9D
:10199000151DE214F3040405150548F0E216F306DC
:1019A0000407150720F4E20CF31C041D151DE21AB0
:1019B000F30A040B150BD801C70162960FAC6297AE
:1019C00004C0B695A795979587950A94D2F789A7ED
:1019D0009AA7ABA7BCA71DA61EA61FA618AA898BEF
:1019E0008AA58A8B8BA58B8B8CA58C8B8DA58D8BDB
:1019F0002FC36A147B048C049D0448F4498B5A8BD2
:101A00006B8B7C8B8D8B9E8B2F8B388F27C300E04D
:101A1000A01600E0B00601E0C00600E0D00688F4A1
:101A20001FEFA116B104C104D10439F030F028E051
:101A3000E22EF12C012D112D18C0EE24FF24870178
:101A400014C020E0A21620E0B20620E0C20621E089
:101A5000D20630F098E1E92EF12C012D112D05C0B0
:101A600080E1E82EF12C012D112DD601C5010E2C9F
:101A700004C0B695A795979587950A94D2F78B5988
:101A80009F4FDC012C9180E290E0A0E0B0E08E1945
:101A90009F09A00BB10B821B9109A109B109009705
:101AA000A105B10509F059C0A614B704C804D904AA
:101AB00070F0E896ECACFDAC0EAD1FADE897E2140B
:101AC000F3040405150518F4D801C7012FC0E896E2
:101AD0008CAD9DADAEADBFADE89782199309A40959
:101AE000B509A40193012A193B094C095D09AA24EF
:101AF000BB246501E8966CAC7DAC8EAC9FACE897DE
:101B0000681679068A069B0628F411E0A12EB12CEE
:101B1000C12CD12C79018A01EA18FB080C091D0996
:101B20006196ECAEFDAE0EAF1FAF619789A79AA785
:101B3000ABA7BCA761960CAD1DAD2EAD3FAD6197B7
:101B40000DA71EA72FA738AB898B8AA58A8B8BA5DB
:101B50008B8B8CA58C8B0D8B7BC2E3968FAFE39721
:101B6000A6019501082E04C0220F331F441F551FE4
:101B70000A94D2F710E2181BE2961FAFE297D20147
:101B8000C101012E04C0B695A795979587950A9433
:101B9000D2F75C016D01A22AB32AC42AD52A259660
:101BA000ACAEBDAECEAEDFAE259772016101E3965D
:101BB0000FACE39704C0CC0CDD1CEE1CFF1C0A9498
:101BC000D2F72196CCAEDDAEEEAEFFAE219764012A
:101BD0005301012E04C0D694C794B794A7940A94D5
:101BE000D2F7A4019301E3960FACE39704C0220F50
:101BF000331F441F551F0A94D2F7E8968CAD9DAD54
:101C0000AEADBFADE89704C0B695A79597958795FB
:101C10001A95D2F77C018D01E22AF32A042B152BA9
:101C2000E9AEFAAE0BAF1CAFE8960CAD1DAD2EAD14
:101C30003FADE897E3960FACE39704C0000F111F88
:101C4000221F331F0A94D2F70DAB1EAB2FAB38AF58
:101C500025962CAD3DAD4EAD5FAD25973A0188245C
:101C6000992440705070A5962CAF3DAF4EAF5FAF3A
:101C7000A597C601B501A40193010E9434217B01FF
:101C80008C01C601B501A40193010E943421C90150
:101C9000DA011C012D01C201B101A5962CAD3DADAB
:101CA0004EAD5FADA5970E9415219B01AC01870148
:101CB000FF24EE24A9ACBAACCBACDCACC601AA279D
:101CC000BB2757016801A82AB92ACA2ADB2AA2160B
:101CD000B306C406D50610F508942108310841085A
:101CE00051082596ECACFDAC0EAD1FAD2597AE0CA2
:101CF000BF1CC01ED11EAE14BF04C006D10670F0BA
:101D0000A216B306C406D50648F408942108310883
:101D100041085108AE0CBF1CC01ED11EA21AB30A46
:101D2000C40AD50AC601B501A40193010E94342159
:101D30007B018C01C601B501A40193010E943421ED
:101D4000C901DA013C014D01C401B301A5962CADD6
:101D50003DAD4EAD5FADA5970E9415219B01AC0135
:101D60008701FF24EE2489AD9AADABADBCADA07068
:101D7000B07057016801A82AB92ACA2ADB2AA2161C
:101D8000B306C406D50610F50894610871088108E9
:101D9000910825966CAD7DAD8EAD9FAD2597A60EB5
:101DA000B71EC81ED91EA616B706C806D90670F0FB
:101DB000A216B306C406D50648F408946108710853
:101DC00081089108A60EB71EC81ED91ED601C501EE
:101DD000821B930BA40BB50B89AB9AABABABBCAB23
:101DE000D1019927882784017301E82AF92A0A2B4F
:101DF0001B2B8FEFA82E8FEFB82EC12CD12CAE202D
:101E0000BF20C022D12278010027112721966CAC77
:101E10007DAC8EAC9FAC21972FEF3FEF40E050E0C0
:101E2000622273228422952221966CAD7DAD8EAD07
:101E30009FAD2197AC0166277727AD964CAF5DAF7C
:101E40006EAF7FAFAD97C601B501A40193010E94AB
:101E50001521A9966CAF7DAF8EAF9FAFA997C60134
:101E6000B501AD962CAD3DAD4EAD5FADAD970E94C9
:101E700015211B012C01C801B701A40193010E9487
:101E800015215B016C01C801B701AD962CAD3DADCC
:101E90004EAD5FADAD970E9415217B018C01A6016F
:101EA0009501220D331D441D551DA9966CAC7DACCA
:101EB0008EAC9FACA997C401AA27BB27280F391F56
:101EC0004A1F5B1F2A153B054C055D0548F4812C14
:101ED000912CE1E0AE2EB12CE80CF91C0A1D1B1D63
:101EE000CA01AA27BB2757016801A80EB91ECA1E3E
:101EF000DB1EA90133272227A9968CAD9DADAEAD7F
:101F0000BFADA997A070B070280F391F4A1F5B1F83
:101F1000E9A8FAA80BA91CA9EA14FB040C051D05E5
:101F200070F0AE14BF04C006D10689F56DA97EA974
:101F30008FA998AD621773078407950740F5DA01FA
:101F4000C90121966CAC7DAC8EAC9FAC21978619F3
:101F50009709A809B9092596ECACFDAC0EAD1FADEB
:101F60002597AE18BF08C00AD10AEE24FF248701C6
:101F7000281739074A075B0728F421E0E22EF12CE5
:101F8000012D112DAE18BF08C00AD10A02C0DA0116
:101F9000C9016DA87EA88FA898AC681A790A8A0A28
:101FA0009B0A09A91AA92BA93CA90A191B092C09E2
:101FB0003D09580169012224332421012DA93EA99C
:101FC0004FA958AD261537054805590528F481E075
:101FD000282E312C412C512C86017501E218F30872
:101FE00004091509A8019701E2960FACE29704C015
:101FF000220F331F441F551F0A94D2F7D401C30187
:10200000E3960FACE39704C0B695A795979587958F
:102010000A94D2F7282B392B4A2B5B2B29A73AA7F6
:102020004BA75CA7E3960FACE39704C01695079502
:10203000F794E7940A94D2F7EDA6FEA60FA718AB83
:10204000298B8AA58A8B8BA58B8B8CA58C8BED8A93
:102050008EA58E8B8FA58F8B88A9888FE1964CAD2E
:102060005DAD6EAD7FADE19741155105610571051F
:1020700009F467C089892A893B894C895D89AE89C1
:10208000BF89188DF82FF19591E01F1608F090E0A8
:10209000822F819521E0181608F020E0E82FE91B37
:1020A00091E08E1708F090E0292B832F819531E085
:1020B000181608F030E0782F721B91E0871708F0AF
:1020C00090E0392B842F819521E0181608F020E04C
:1020D000682F631B91E0861708F090E0292B852F6D
:1020E000819531E0181608F030E0582F521B91E02E
:1020F000851708F090E0392B8A2F819521E018167A
:1021000008F020E0482F431B91E0841708F090E08E
:10211000292B8B2F819591E0181608F090E0382F2D
:10212000321B21E0831708F020E0922B812F81954C
:10213000891BF98BEA8B7B8B6C8B5D8B4E8B3F8B7A
:10214000888F29893A894B895C896D897E898F8935
:10215000988DC958DF4FE2E10C947221982F969523
:1021600096959695482F4770613009F482C061308A
:1021700020F0623009F0C2C036C0913099F0913041
:1021800030F09230D1F0933009F0B8C021C02AB3BA
:1021900081E090E002C0880F991F4A95E2F7282B52
:1021A0002ABB089527B381E090E002C0880F991FF1
:1021B0004A95E2F7282B27BB089524B381E090E0ED
:1021C00002C0880F991F4A95E2F7282B24BB089577
:1021D00021B381E090E002C0880F991F4A95E2F791
:1021E000282B21BB08959130B9F0913030F0923016
:1021F00011F1933009F082C02DC03AB381E090E034
:1022000001C0880F4A95EAF7282F209523232ABB7F
:102210002BB3822B8BBB089537B381E090E001C0D4
:10222000880F4A95EAF7282F2095232327BB28B348
:10223000822B88BB089534B381E090E001C0880F01
:102240004A95EAF7282F2095232324BB25B3822B18
:1022500085BB089531B381E090E001C0880F4A95B5
:10226000EAF7282F2095232321BB22B3822B82BBA0
:1022700008959130B9F0913030F0923011F19330EF
:1022800009F03CC02DC08AB321E030E002C0220F2B
:10229000331F4A95E2F7209582238ABB8BB328230C
:1022A0002BBB089587B321E030E002C0220F331F1B
:1022B0004A95E2F72095822387BB88B3282328BB61
:1022C000089584B321E030E002C0220F331F4A9505
:1022D000E2F72095822384BB85B3282325BB08958C
:1022E00081B321E030E002C0220F331F4A95E2F7AC
:1022F0002095822381BB82B3282322BB08951F939C
:10230000CF93DF9310E0C0E0D0E0E12FF0E0E85998
:10231000FE4F812F60810E94AE101F5F2196C03258
:10232000D10599F7DF91CF911F910895382F37701C
:10233000869586958695813009F1813030F082301E
:10234000B1F1833009F064C04BC0613059F42BB354
:1023500081E090E002C0880F991F3A95E2F7282BA0
:102360002BBB08952BB381E090E002C0880F991F2A
:102370003A95E2F7809582238BBB0895613059F43A
:1023800028B381E090E002C0880F991F3A95E2F7E8
:10239000282B28BB089528B381E090E002C0880F65
:1023A000991F3A95E2F78095822388BB08956130A2
:1023B00059F425B381E090E002C0880F991F3A9547
:1023C000E2F7282B25BB089525B381E090E002C0F9
:1023D000880F991F3A95E2F78095822385BB08956F
:1023E000613059F422B381E090E002C0880F991F58
:1023F0003A95E2F7282B22BB089522B381E090E0C2
:1024000002C0880F991F3A95E2F78095822382BB1C
:102410000895282F2770869586958695813051F0EE
:10242000813030F0823041F0833079F080E00895DF
:1024300089B303C086B301C083B390E002C0959511
:1024400087952A95E2F78170089580B390E002C0E5
:10245000959587952A95E2F781700895382F377002
:10246000869586958695813091F0813028F082306E
:10247000C9F0833061F521C02BB381E090E002C048
:10248000880F991F3A95E2F728272BBB089528B3A8
:1024900081E090E002C0880F991F3A95E2F7282763
:1024A00028BB089525B381E090E002C0880F991FF2
:1024B0003A95E2F7282725BB089522B381E090E002
:1024C00002C0880F991F3A95E2F7282722BB08958A
:1024D000813049F0813028F0823039F0833041F486
:1024E00006C06BBB089568BB089565BB089562BBC9
:1024F0000895EF92FF921F93182F80E161E00E94F0
:10250000961181E160E00E949611612F62956170E1
:102510008CE10E949611612F6295669561708DE144
:102520000E949611612F629566956695617087E1AC
:102530000E949611612F661F6627661F8FE10E9419
:10254000961182E161E00E94961180EDE82E87E00D
:10255000F82EC7010197F1F782E160E00E94961121
:10256000C7010197F1F7612F61708CE10E9496110C
:10257000612F669561708DE10E94961116951695F2
:10258000612F617087E10E949611169511708FE19D
:10259000612F0E94961182E161E00E949611C701AD
:1025A0000197F1F782E160E00E949611C70101975F
:1025B000F1F71F91FF90EF900895EF92FF921F9314
:1025C000CF93DF9310E0C7E0D0E0E82EFF24C701EF
:1025D0000C2E02C0959587950A94E2F780FF02C001
:1025E00011E004C0113011F010E004C08170805D72
:1025F0000E94791221978FEFCF3FD80741F7DF91E3
:10260000CF911F91FF90EF9008950F931F93CF9359
:10261000DF93C7E0D0E0082F10E0C8010C2E02C005
:10262000959587950A94E2F78170805D0E947912F2
:1026300021978FEFCF3FD80781F7DF91CF911F917F
:102640000F9108950E94791208950F931F938C01A2
:1026500060E177E20E94012168EE73E00E940121AF
:10266000862F805D0E947912C80168EE73E00E9497
:10267000012164E670E00E940121862F805D0E94A6
:102680007912C80164E670E00E9401216AE070E0FE
:102690000E940121862F805D0E947912C8016AE0A4
:1026A00070E00E940121805D0E9479121F910F91BC
:1026B00008952F923F924F925F926F927F928F92E6
:1026C0009F92AF92BF92CF92DF92EF92FF920F93C1
:1026D0001F93DF93CF93CDB7DEB763970FB6F89410
:1026E000DEBF0FBECDBF722E632E542E452E262E7A
:1026F000872E982E392E822F832B842B852B862B89
:10270000872B8929892B21F480E30E947912B3C099
:1027100097FF60C0219591E0121608F090E0362DE9
:10272000319551E0131608F050E0F32EF91A91E0BC
:102730003F1508F090E0592B452D419561E01416A6
:1027400008F060E0042F051B91E0401708F090E0CE
:10275000692B542D519571E0151608F070E0152F76
:10276000161B91E0511708F090E0792B622D6195CE
:10277000E1E0161608F0E0E0B62FB71B91E06B170A
:1027800008F090E0E92B782D7195F1E0171608F02C
:10279000F0E0A72FAE1B91E07A1708F090E0F92B3C
:1027A000892D8195E1E0181608F0E0E0982F9F1B35
:1027B000F92F91E08F1708F090E0E92B3194722EF9
:1027C0006F2C502E412E2B2E8A2E9F2E3E1A8DE2DC
:1027D0000E947912FE01319680E1DF011D928A95F7
:1027E000E9F7198AE1E0F0E0EC0FFD1F2989E20F1B
:1027F000F11DFB8BEA8B272D362D452D542D622D97
:10280000782D892D932DEAE0AE2EBB24CC24DD2437
:10281000EE24FF2400E010E00E947108205DAA89E8
:10282000BB892C93B989BF5FB98B272D362D452DD8
:10283000542D622D782D892D932D0E944900722EE2
:10284000632E542E452E262E872E982E392E822F1B
:10285000862985298429822988298929832911F6AD
:10286000198907C0FE01E10FF11D80810E947912D4
:1028700011501123B9F763960FB6F894DEBF0FBE5F
:10288000CDBFCF91DF911F910F91FF90EF90DF901F
:10289000CF90BF90AF909F908F907F906F905F9000
:1028A0004F903F902F9008951F93CF93DF93EC01AB
:1028B00010E003C00E9479121F5FFE01E10FF11DBD
:1028C00080818823B9F7DF91CF911F910895EF920E
:1028D000FF921F93182F80E160E00E94961181E122
:1028E00060E00E949611612F629561708CE10E94F8
:1028F0009611612F6295669561708DE10E94961127
:10290000612F629566956695617087E10E949611C8
:10291000612F661F6627661F8FE10E94961182E174
:1029200061E00E949611F0EDEF2EF7E0FF2EC70157
:102930000197F1F782E160E00E949611C7010197CB
:10294000F1F7612F61708CE10E949611612F6695FD
:1029500061708DE10E94961116951695612F617038
:1029600087E10E949611169511708FE1612F0E94E8
:10297000961182E161E00E949611C7010197F1F77B
:1029800082E160E00E949611C7010197F1F71F9163
:10299000FF90EF9008950F931F93CF93DF938C01D7
:1029A000862F880F880F880F805C0E946714C0E014
:1029B000D0E0F801EC0FFD1F80810E947912219672
:1029C000C830D105B1F7DF91CF911F910F910895D4
:1029D0000F931F93CF93DF938C01862F880F880F5F
:1029E000880F805C0E946714C0E0D0E0F801EC0F13
:1029F000FD1F80810E9479122196C830D105B1F760
:102A0000DF91CF911F910F910895882329F4862F8C
:102A100080580E9467140895813021F4862F8054D5
:102A20000E9467140895AF92BF92CF92DF92EF9207
:102A3000FF920F931F93D22EC32EB42EA52E0E9469
:102A400005159701A8016D2D7C2D8B2D9A2D0E94C7
:102A500059131F910F91FF90EF90DF90CF90BF908F
:102A6000AF90089581E00E94671408950F931F931B
:102A700084EF91E028EC30E0F9013197F1F701970C
:102A8000D9F782E00E94671400ED17E0C8010197B2
:102A9000F1F788E20E946714C8010197F1F78CE012
:102AA0000E946714C8010197F1F781E00E94671442
:102AB00080EA9FE00197F1F786E00E946714C80161
:102AC0000197F1F71F910F910895EF92FF920F93E5
:102AD0001F93FC010580F681E02DE680F7808701D9
:102AE000045F1F4FC8010E94CC1789EB91E0B80129
:102AF0000E946E1720E0E0918801F0918901D701D2
:102B000056969C918689981708F021E0822F1F9194
:102B10000F91FF90EF900895FF920F931F93CF9323
:102B2000DF9399E0F92E21C0F894E091BE01F09175
:102B3000BF0106811781C8010C960E94CC177894BA
:102B4000E8012296CE010E94CC17F8019689809167
:102B50008A01891710F490938A019F9DC001112466
:102B60008F569E4FBE010E946E178091B901882337
:102B7000D9F60E94101C20918B0130918C01821B90
:102B8000930B90938E0180938D0189E0F82E53C0B2
:102B900001969093900180938F01215030403093A3
:102BA0008E0120938D01892B09F03EC02091B50143
:102BB0003091B6018091B7019091B8019093B60120
:102BC0008093B5013093B8012093B7012DC00580E3
:102BD000F681E02DC681D78120918F01309190013F
:102BE0008A819B812817390730F1F8948E010E5F96
:102BF0001F4FC8010E94CC178C899D89892B21F019
:102C0000CE010C960E94CC1778949E8980918A01FF
:102C1000891710F490938A019F9DC00111248F564B
:102C20009E4FB8010E946E17E091B501F091B60178
:102C30008081882361F620918D0130918E018091F1
:102C40008F01909190012115310509F0A1CF90934A
:102C50008C0180938B0190918A0129E006C0992311
:102C600019F410928A0132C09150929FD001112420
:102C7000AF56BE4F8C91882391F390938A011196A1
:102C8000ED91FC9112970280F381E02D1296FC9356
:102C9000EE931197CD010396E817F90731F482817D
:102CA000938112969C938E9311971196ED91FC91BE
:102CB00012970680F781E02DF0938901E093880157
:102CC00020813181CF016789F9010995DF91CF9189
:102CD0001F910F91FF9008950F931F93CF93DF9350
:102CE000EB0100918F0110919001080F191F809145
:102CF00088019091890102960E94CC17E091880189
:102D0000F09189011383028380918F01909190014A
:102D1000BF016E5F7F4F0817190728F48091B70134
:102D20009091B80104C08091B5019091B6010E94C4
:102D30009717209749F06091880170918901645F2D
:102D40007F4FCE010E949717DF91CF911F910F9176
:102D50000895AF92BF92CF92DF92EF92FF920F93BE
:102D60001F93CF93DF936C01B62EA42E8AE190E0DF
:102D70000E943317EC01009711F48FEF59C0809136
:102D8000880190918901892B21F5D0938901C09305
:102D9000880181E991E00E945A178AE991E00E9436
:102DA0005A1723EAE22E21E0F22EC7010E945A1799
:102DB0000CEA11E0C8010E945A1789EB91E00E94C9
:102DC0005A17F092B601E092B5011093B801009342
:102DD000B701EB2CBB2011F0EE24E394198E188E72
:102DE000EE8AAF8AFE01C192D1928F01CF010E947B
:102DF0006A17CE010C960E946A17D987C887DB8BA9
:102E0000CA8B85E090E08E1991099D878C879E89F9
:102E100080918A01891710F490938A0189E0989F24
:102E2000C00111248F569E4FB8010E946E1781E099
:102E3000DF91CF911F910F91FF90EF90DF90CF9096
:102E4000BF90AF90089508951092C3011092C201EF
:102E5000089524E833E08091C2019091C301281BBA
:102E6000390BC90108950F931F93CF93DF938C0102
:102E70000E940A1C8091C2019091C3019801280F01
:102E8000391F43E02438340758F48217930740F47D
:102E9000EC01CC53DE4F3093C3012093C20102C03A
:102EA000C0E0D0E00E94E61DCE01DF91CF911F91DE
:102EB0000F910895FC019C012D5F3F4F32832183C8
:102EC0008FEF9FEF94838383368325833087278317
:102ED00010820895FC01118610860895CF93DF9328
:102EE000AC01DB01EC0129813A81F90182819381F6
:102EF00013969C938E93129789819A8115969C9331
:102F00008E9314970280F381E02D75836483E90129
:102F10007B836A83FA017283618319965C934E9373
:102F2000189780818F5F8083DF91CF910895CF9331
:102F3000DF939C01EB01488159818FEF4F3F580788
:102F400021F4F901A781B08510C0D901139604C0FE
:102F500012960D90BC91A02D1296ED91FC911397B5
:102F6000808191814817590798F71296ED91FC914D
:102F70001397FB83EA83D583C483BD83AC83139605
:102F8000DC93CE93129739872887F90180818F5F70
:102F90008083DF91CF910895CF93DF93DC01129668
:102FA000ED91FC91139714968D919C9115979583B3
:102FB00084831496CD91DC911597FB83EA83189650
:102FC000ED91FC911997818192818A179B0711F4E9
:102FD000D283C18319961C921E92189780818150CA
:102FE0008083DF91CF910895FC0191E1908322E2EB
:102FF000229383E3829362937293129280E8829386
:10300000129282E0829383E0829384E0829385E04F
:10301000829386E0829387E0829388E0829389E0BE
:10302000829380E18293929382E1829383E18293FF
:1030300084E1829385E1829386E1829387E18293A2
:1030400088E1829389E1829380E2829381E2829394
:10305000229383E282934293529386E2829387E2A1
:10306000829388E2829389E2829380E3829381E370
:1030700082933197CF0108951BBC8CE78ABD8BE00A
:103080008EBD89B7806189BFA0914805B09149057F
:10309000CD91CDBFDD91DEBFFF91EF91DF91CF915B
:1030A000BF91AF919F918F917F916F915F914F9160
:1030B0003F912F911F910F91FF90EF90DF90CF9054
:1030C000BF90AF909F908F907F906F905F904F9048
:1030D0003F902F901F900F900FBE0F90089581E0AA
:1030E000089508950F920FB6F8940F921F9211242D
:1030F0002F923F924F925F926F927F928F929F9208
:10310000AF92BF92CF92DF92EF92FF920F931F93F5
:103110002F933F934F935F936F937F938F939F93DF
:10312000AF93BF93CF93DF93EF93FF93A0914805A5
:10313000B09149050DB60D920EB60D920E94EE1C8F
:103140000E94241CA0914805B0914905CD91CDBFA6
:10315000DD91DEBFFF91EF91DF91CF91BF91AF91F4
:103160009F918F917F916F915F914F913F912F919F
:103170001F910F91FF90EF90DF90CF90BF90AF9095
:103180009F908F907F906F905F904F903F902F9087
:103190001F900F900FBE0F9008950E9472181895FF
:1031A0000F920FB6F8940F921F9211242F923F9214
:1031B0004F925F926F927F928F929F92AF92BF9247
:1031C000CF92DF92EF92FF920F931F932F933F9333
:1031D0004F935F936F937F938F939F93AF93BF931F
:1031E000CF93DF93EF93FF93A0914805B0914905EA
:1031F0000DB60D920EB60D920E94241CA0914805AA
:10320000B0914905CD91CDBFDD91DEBFFF91EF912A
:10321000DF91CF91BF91AF919F918F917F916F91EE
:103220005F914F913F912F911F910F91FF90EF90E0
:10323000DF90CF90BF90AF909F908F907F906F90D6
:103240005F904F903F902F901F900F900FBE0F9068
:103250000895FC010FB6F8940F92828D0F900FBE67
:103260000895FC01828D0895FC01828D90E08823F1
:1032700009F491E0892F0895FC01928D20E0838D5F
:10328000981709F421E0822F08950F931F938C0162
:10329000FC01808191810E942317C8010E9423179D
:1032A0001F910F9108950F931F93CF93DF93EC011C
:1032B000FB018A018A8D882381F14881598141155A
:1032C0005105A9F08C8D2E813F81280F311D3F8340
:1032D0002E838A819B812817390710F05F834E83E4
:1032E0004C8D6E817F81CF0150E00E948D218A8DAF
:1032F00081508A8F8D8D8F3F69F48885882361F096
:10330000CE0108960E94AF1C882331F081E0F801BD
:10331000808303C08F5F8D8F81E0DF91CF911F91FC
:103320000F910895CF93DF93EC01842F4C8D4423AC
:10333000A1F18823B1F48C819D8150E00E948D2100
:103340008C8D2C813D81280F311D3D832C838A81FA
:103350009B812817390708F1888199819D838C8387
:103360001CC08E819F8150E00E948D218C8D90E049
:1033700044275527481B590B8E819F81840F951F29
:103380009F838E83288139818217930730F48A8145
:103390009B81840F951F9F838E838A8D8F5F8A8F79
:1033A000DF91CF9108950F931F93CF93DF93EC019B
:1033B0008A019A8D8B8D981710F080E017C0CE018E
:1033C000422F0E9492198E8D8F3F69F4898988233C
:1033D00061F0CE0141960E94AF1C882331F081E05C
:1033E000F801808303C08F5F8E8F81E0DF91CF91E2
:1033F0001F910F9108950F931F93CF93DF93EC01CB
:103400000FB6F8940F928C010F5E1F4F0DC0898983
:10341000882369F0C8010E94AF1C882311F00E9424
:10342000AB1C8E8D81508E8F8E8D181684F38FEF8E
:103430008E8F0F900FBE0FB6F8940F928E01085F1B
:103440001F4F0DC08885882369F0C8010E94AF1CFA
:10345000882311F00E94AB1C8D8D81508D8F8D8D36
:10346000181684F38FEF8D8F0F900FBEDF91CF91E1
:103470001F910F9108957F928F929F92AF92BF926A
:10348000CF92DF92EF92FF920F931F93DF93CF9330
:1034900000D000D00F92CDB7DEB78C01962E872ECC
:1034A0005D834C83722E91E1C92ED12CC00ED11EAA
:1034B00020E07E010894E11CF11C84E0A82EB12CD0
:1034C000AC0EBD1E01C021E00FB6F8940F92F801BA
:1034D000828D882309F43EC0E680F78040815181C7
:1034E00041155105B1F0848D9701280F311D3783A7
:1034F0002683828193812817390710F057834683EA
:10350000F801448D66817781892D982D50E00E94C5
:103510008D21772071F4F801828D8150828F808512
:103520008823A1F0C80108960E94AF1C813071F475
:103530000BC0F801F782E6828189882339F0C60141
:103540000E94AF1C882311F00E94D0180F900FBE6C
:1035500081E04AC08C819D81892B19F40F900FBEA8
:1035600042C0222319F4C7010E94661C0F900FBEAF
:103570000E940A1C0FB6F8940F92F801858D8F3FB8
:1035800009F4158EF801868D8F3F09F4168E0F9081
:103590000FBEC701B5010E94711C8823F9F40FB654
:1035A000F8940F92F801828D0F900FBE882381F45A
:1035B0006C817D81C6010E94C91DC8010E94FB1952
:1035C0000E94E61D882309F07ECF0E94D0187BCF91
:1035D000C8010E94FB190E94E61D75CFC8010E9418
:1035E000FB190E94E61D80E00F900F900F900F9046
:1035F0000F90CF91DF911F910F91FF90EF90DF908F
:10360000CF90BF90AF909F908F907F9008957F92C2
:103610008F929F92AF92BF92CF92DF92EF92FF92E2
:103620000F931F93DF93CF9300D000D00F92CDB7AD
:10363000DEB78C016B015D834C83722E48E0E42E73
:10364000F12CE80EF91E20E05E010894A11CB11CCB
:1036500034E0832E912C8C0E9D1E01C021E00FB60C
:10366000F8940F92F801928D838D9817A8F4C801F1
:10367000B601472D0E949219F8018189882341F0F3
:10368000C80141960E94AF1C813011F40E94D018ED
:103690000F900FBE81E04CC08C819D81892B19F465
:1036A0000F900FBE44C0222319F4C5010E94661C6E
:1036B0000F900FBE0E940A1C0FB6F8940F92F801EB
:1036C000858D8F3F09F4158EF801868D8F3F09F4A3
:1036D000168E0F900FBEC501B4010E94711C882385
:1036E00009F50FB6F8940F92F801928D0F900FBE66
:1036F000F801838D981781F46C817D81C7010E9448
:10370000C91DC8010E94FB190E94E61D882309F00B
:10371000A5CF0E94D018A2CFC8010E94FB190E9419
:10372000E61D9CCFC8010E94FB190E94E61D80E0A7
:103730000F900F900F900F900F90CF91DF911F91EE
:103740000F91FF90EF90DF90CF90BF90AF909F9040
:103750008F907F900895AF92BF92CF92DF92EF92B9
:10376000FF920F931F93CF93DF93B82EA62E88233B
:1037700009F442C08FE190E00E943317EC010097FA
:10378000D9F1EB2CFF24CA2CDD24CE9C8001CF9CE8
:10379000100DDE9C100D1124C80101960E943317F4
:1037A0009C0199838883009721F1080F191F1B83BF
:1037B0000A831A8E9D838C830894E108F108EC9C9F
:1037C000C001ED9C900DFC9C900D1124280F391F19
:1037D0003F832E83BB8EAC8E8FEF8D8F8E8FCE016D
:1037E00008960E945A17CE0141960E945A179E01D0
:1037F00005C0CE010E94231720E030E0C901DF910F
:10380000CF911F910F91FF90EF90DF90CF90BF90DD
:10381000AF90089580914E058F5F80934E05089577
:103820000FB6F8940F9220914C0530914D050F90F2
:103830000FBEC901089520914C0530914D05C90175
:10384000089580915105089580914E05882351F087
:1038500081E080934A05089580914F0581508093BF
:103860004F0501C099E0E0914F05E99FF001112457
:10387000EA5AFA4F8081882379F390914F0589E0C5
:10388000989FD0011124AA5ABA4F1196ED91FC913C
:1038900012970280F381E02D1296FC93EE9311971C
:1038A000CD010396E817F90731F4828193811296CE
:1038B0009C938E9311971196ED91FC9112978681AE
:1038C000978190934905809348050895FC01809164
:1038D0004B05808380914C0590914D0592838183A7
:1038E0000895FC01DB010FB6F8940F9290914B05FF
:1038F0008081981749F020914C0530914D058181C8
:1039000092812817390718F580914C0590914D0543
:10391000218132814D915C911197821B930B841709
:103920009507A8F480914C0590914D05281B390B03
:10393000240F351F2D933C9380914B0580838091FC
:103940004C0590914D059283818380E001C081E018
:103950000F900FBE089581E080934A0508950F935C
:103960001F93CF93DF93FC010580F681E02D068144
:103970001781E8012C96CE010E94CC1780914E054C
:103980008823A9F4E8012296CE010E94CC17D80121
:1039900056969C9180914F05891710F490934F058E
:1039A00089E0989FC00111248A5A9A4F02C089E980
:1039B00095E0BE010E946E17E0914805F09149051F
:1039C00020E0D80156969C918689981708F021E04E
:1039D000822FDF91CF911F910F910895FF920F9346
:1039E0001F93CF93DF9380914E05882309F08FC0FA
:1039F00080914C0590914D05019690934D058093D3
:103A00004C0580914C0590914D05892B79F52091BD
:103A10009505309196058091970590919805909322
:103A2000960580939505309398052093970580918E
:103A30004B058F5F80934B05E0919505F0919605BE
:103A40008081882319F48FEF9FEF0CC0E0919505DA
:103A5000F09196050580F681E02D0680F781E02D36
:103A600082819381909366018093650120914C053A
:103A700030914D05809165019091660128173907B5
:103A800008F44AC089E0F82EE0919505F09196057A
:103A90008081882339F48FEF9FEF909366018093A4
:103AA00065013AC0E0919505F09196050580F68193
:103AB000E02DC681D7812A813B8180914C05909170
:103AC0004D058217930728F4309366012093650112
:103AD00023C08E010E5F1F4FC8010E94CC178C8936
:103AE0009D89892B21F0CE010C960E94CC179E89CE
:103AF00080914F05891710F490934F059F9DC00149
:103B000011248A5A9A4FB8010E946E17BDCF809136
:103B100050058F5F80935005DF91CF911F910F91DA
:103B2000FF900895CF93DF93EC01E0914805F09169
:103B300049059383828380914C0590914D05C81768
:103B4000D90768F480919705909198056091480590
:103B5000709149056E5F7F4F0E94971717C0809143
:103B600095059091960560914805709149056E5FA5
:103B70007F4F0E9497178091650190916601C81749
:103B8000D90720F4D0936601C0936501DF91CF91EE
:103B900008950F931F938B0160914805709149051B
:103BA000645F7F4F0E949717809148059091490567
:103BB00002960E94CC1780914C0590914D05800F84
:103BC000911F0E94921D1F910F910895CF92DF9235
:103BD000FF920F931F93DF93CF930F92CDB7DEB772
:103BE0000FB6F8940F9280914E05815080934E0548
:103BF00080914E05882309F058C080915105882393
:103C000009F453C0198299E0F92E2DC0E0919E0568
:103C1000F0919F05C680D780C6010C960E94CC17F4
:103C200086010E5F1F4FC8010E94CC17D601569621
:103C30009C9180914F05891710F490934F059F9D9B
:103C4000C00111248A5A9A4FB8010E946E17E09160
:103C50004805F0914905D60156969C91868998179A
:103C600010F0B1E0B98380919905882379F68091AD
:103C70005005882341F40CC00E94EE1C8091500531
:103C8000815080935005809150058823A9F707C083
:103C9000E981E13021F080914A05813031F41092C0
:103CA0004A050E94D01881E001C080E00F900FBE4D
:103CB0000F90CF91DF911F910F91FF90DF90CF90E8
:103CC00008950F931F93CF93DF93EC010097C9F0F2
:103CD00080914E058F5F80934E0500914C051091A9
:103CE0004D05809148059091490502960E94CC1798
:103CF000CE01800F911F0E94921D0E94E61D882315
:103D000011F40E94D018DF91CF911F910F91089567
:103D1000CF93DF93FC01EB0180914E058F5F809381
:103D20004E0520813181C20FD31F80914C059091A7
:103D30004D058217930728F4C217D30728F020E017
:103D40000CC0C217D30740F080914C0590914D05EF
:103D500020E08C179D0708F421E0D183C083222343
:103D600051F0809148059091490502960E94CC1728
:103D7000CE010E94921D0E94E61D882311F40E942C
:103D8000D018DF91CF910895EF92FF920F931F9378
:103D9000CF93DF938C010FB6F8940F928091480572
:103DA000909149050817190719F400E010E003C0C5
:103DB0000115110529F4C0914805D091490501C0AC
:103DC000E80122E0E22EF12CEC0EFD1EC7010E945C
:103DD000CC178C899D89892B21F0CE010C960E94ED
:103DE000CC1782EA95E0B7010E946E1780915305C7
:103DF0008F5F80935305809154058F5F80935405A6
:103E00000F900FBE80915205882321F0012B11F4F1
:103E10000E94D018DF91CF911F910F91FF90EF90EA
:103E20000895F894109252050E94711808950F9306
:103E30001F93809153058823E1F380914E058F5F96
:103E400080934E051091A2050E94E61D112389F36F
:103E50000FB6F8940F92E091A705F091A80506819E
:103E60001781C80102960E94CC178091510581509C
:103E700080935105809153058150809353050F9095
:103E80000FBEF8018789908D0E942317C8010E94F8
:103E90002317CFCF2F923F924F925F927F928F92B4
:103EA0009F92AF92BF92CF92DF92EF92FF920F93C9
:103EB0001F93CF93DF931C014B015A012901702EF0
:103EC000E6018DE290E00E9433176C01009771F0DB
:103ED000209721F4C5010E943317EC01F601D08F21
:103EE000C78B209729F4C6010E9423178FEFBFC00C
:103EF000CE0165EA70E0A5010E9496210894A10810
:103F0000B108F601C789D08DCA0DDB1DC6014996DF
:103F1000B40144E150E00E949D21F60114A6072D52
:103F2000F4E0F71508F404E0F601068B42E0A42E55
:103F3000B12CAC0CBD1CC5010E946A17C6010C96C1
:103F40000E946A17F601D186C08685E090E0801B4A
:103F5000910995878487D38AC28ACE01B101A201D3
:103F60000E94F417F60191838083E114F10419F0A3
:103F7000F701D182C0820FB6F8940F92809151055B
:103F80008F5F809351058091480590914905892B59
:103F900079F5D0924905C09248058091510581304C
:103FA000B1F5C6E5D5E0CE010E945A172996F5E095
:103FB000C338DF07C1F733E8E32E35E0F32EC7013E
:103FC0000E945A170CE815E0C8010E945A1789E9A7
:103FD00095E00E945A1782EA95E00E945A17F092E3
:103FE0009605E092950510939805009397050FC0EC
:103FF00080915205882359F4E0914805F0914905D4
:104000008689781620F0D0924905C0924805F601BD
:10401000968980915505891710F4909355058091E4
:1040200054058F5F80935405F601968980914F0562
:10403000891710F490934F05F601868929E0829F35
:10404000C00111248A5A9A4FB5010E946E170F9031
:104050000FBE80915205882349F0E0914805F09108
:1040600049058689871510F40E94D01881E0DF91F8
:10407000CF911F910F91FF90EF90DF90CF90BF9065
:10408000AF909F908F907F905F904F903F902F9038
:104090000895AF92BF92CF92DF92EF92FF920F936B
:1040A00087E19FE160E670E044E650E020E030E028
:1040B00000E0EE24FF24CC24DD24AA24BB240E94AB
:1040C0004A1F813049F4F8948093520510924D05AF
:1040D00010924C050E943C180F91FF90EF90DF90DA
:1040E000CF90BF90AF90089588E00E942E1284E692
:1040F00090E00E94611EF8CF1F930EC01AE781E086
:1041000066E00E940515812F0E94221384EF91E042
:104110000E94611E1A3591F31AE5F1CF1F9311E643
:10412000809167018A3710F0109367018091AB0589
:104130008F3020F00E9432151092AB0580E060E0D5
:104140000E9405156091AB056F5F6093AB056150F0
:1041500081E00E940515809167018F5F8093670160
:1041600081500E94221384EF91E00E94611ED8CFFB
:1041700078940E947F1188E060E00E94AE108AE08F
:1041800060E00E94AE1088E060E00E9496118AE034
:1041900060E00E9496110E9436150895AF92BF927A
:1041A000CF92DF92EF92FF920F930E94B8208EE899
:1041B00090E260E070E048EC50E020E030E004E0A5
:1041C000EE24FF24CC24DD24AA24BB240E944A1F11
:1041D0008CE790E260E070E048EC50E020E030E0F6
:1041E00003E00E944A1F84E790E260E070E044E64A
:1041F00050E020E030E002E00E944A1F0E94492087
:10420000FFCFAA1BBB1B51E107C0AA1FBB1FA617EC
:10421000B70710F0A61BB70B881F991F5A95A9F76F
:1042200080959095BC01CD010895629FD001739F48
:10423000F001829FE00DF11D649FE00DF11D929F42
:10424000F00D839FF00D749FF00D659FF00D992781
:10425000729FB00DE11DF91F639FB00DE11DF91FA5
:10426000BD01CF0111240895A1E21A2EAA1BBB1B88
:10427000FD010DC0AA1FBB1FEE1FFF1FA217B30732
:10428000E407F50720F0A21BB30BE40BF50B661F48
:10429000771F881F991F1A9469F76095709580950C
:1042A00090959B01AC01BD01CF0108952F923F92E3
:1042B0004F925F926F927F928F929F92AF92BF9236
:1042C000CF92DF92EF92FF920F931F93CF93DF93E2
:1042D000CDB7DEB7CA1BDB0B0FB6F894DEBF0FBE3F
:1042E000CDBF09942A88398848885F846E847D848C
:1042F0008C849B84AA84B984C884DF80EE80FD808E
:104300000C811B81AA81B981CE0FD11D0FB6F89403
:10431000DEBF0FBECDBFED010895FB01DC0102C081
:1043200001900D9241505040D8F70895DC0101C032
:104330006D9341505040E0F70895FB01DC0141507E
:10434000504048F001900D920020C9F701C01D9225
:0C43500041505040E0F70895F894FFCF72
:10435C0049444C4500000102020303030304040416
:10436C0004040404040505050505050505050505F6
:10437C0005050505050606060606060606060606D6
:10438C0006060606060606060606060606060606C1
:10439C0006060606060707070707070707070707A6
:1043AC000707070707070707070707070707070791
:1043BC000707070707070707070707070707070781
:1043CC000707070707070707070707070707070771
:1043DC000707070707080808080808080808080856
:1043EC000808080808080808080808080808080841
:1043FC000808080808080808080808080808080831
:10440C000808080808080808080808080808080820
:10441C000808080808080808080808080808080810
:10442C000808080808080808080808080808080800
:10443C0008080808080808080808080808080808F0
:10444C0008080808080808080808080808080808E0
:10445C000808080808FFFF610101020100000000C4
:10446C000000000000000000000000000000000040
:08447C0002020202000001002F
:00000001FF
