S01800004763634170706C69636174696F6E31322E7372656328
S11300000C944A000C9488050C94B1050C94DA0500
S11300100C9467000C94E4060C94BB060C946906DB
S11300200C9492060C9440060C9467000C941706EA
S11300300C9467000C9419070C9467000C94420705
S11300400C9467000C9467000C9467000C94670090
S11300500C946700EA01EE01F201F601FA01FE01D7
S1130060020206020A020E02120216021A021E02FC
S113007022022602350239023D02410245024902AA
S11300804D025102550259025D0261026502690284
S11300906D02710211241FBECFE5D8E0DEBFCDBFD3
S11300A010E0A0E6B0E0E6E8FFE002C005900D92A3
S11300B0A63AB107D9F720E0A6EAB0E001C01D9244
S11300C0AF3BB207E1F70E9482020C94C1070C9483
S11300D000000E9475029093A7008093A6000895E3
S11300E061E08CE00E94340461E08DE00E943404FD
S11300F061E08EE00E94340461E08FE00E943404E9
S11301000895CF93C82F60E081E00E9434046C2FDF
S1130110661F6627661F86E00E943404C6FB6627B6
S113012060F985E00E943404C5FB662760F984E029
S11301300E943404C4FB662760F983E00E943404FF
S113014061E082E00E9434048FEC97E00197F1F7BC
S113015000C0000060E082E00E9434048FEC97E06D
S11301600197F1F700C00000C3FB662760F986E041
S11301700E943404C2FB662760F985E00E943404BF
S1130180C1FB662760F984E00E9434046C2F61701F
S113019083E00E94340461E082E00E9434048FEC26
S11301A097E00197F1F700C0000060E082E00E9450
S11301B034048FEC97E00197F1F700C00000CF9171
S11301C00895CF93C82F61E081E00E9434046C2F1E
S11301D0661F6627661F86E00E943404C6FB6627F6
S11301E060F985E00E943404C5FB662760F984E069
S11301F00E943404C4FB662760F983E00E9434043F
S113020061E082E00E9434048FEC97E00197F1F7FB
S113021000C0000060E082E00E9434048FEC97E0AC
S11302200197F1F700C00000C3FB662760F986E080
S11302300E943404C2FB662760F985E00E943404FE
S1130240C1FB662760F984E00E9434046C2F61705E
S113025083E00E94340461E082E00E9434048FEC65
S113026097E00197F1F700C0000060E082E00E948F
S113027034048FEC97E00197F1F700C00000CF91B0
S113028008952FE788E391E0215080409040E1F702
S113029000C0000082E00E94810088E20E94810088
S11302A08CE00E94810081E00E9481008FEC97E045
S11302B00197F1F700C0000086E00E9481000895D4
S11302C00E94E1000895CF92DF92EF92FF921F9374
S11302D0CF93DF93CDB7DEB72A970FB6F894DEBF7E
S11302E00FBECDBF6B017C016115710581059105C0
S11302F021F480E30E9460013BC099235CF48DE209
S11303000E946001F094E094D094C094C11CD11C6C
S1130310E11CF11C10E017C0C701B6012AE030E06F
S113032040E050E00E948D07E1E0F0E0EC0FFD1F9B
S1130330E10FF11D17FDFA95605D6083C22ED32E87
S1130340E42EF52E1F5FC114D104E104F10421F75A
S113035011500CC0E1E0F0E0EC0FFD1FE10FF11DC6
S113036017FDFA9580810E94600111501F3F91F79B
S11303702A960FB6F894DEBF0FBECDBFDF91CF91A2
S11303801F91FF90EF90DF90CF9008950F931F93EC
S1130390CF938C01C0E003C00E946001CF5FF801DD
S11303A0EC0FF11D80818111F7CFCF911F910F9137
S11303B00895882321F0813009F44CC00895862FD4
S11303C090E08031910508F08FC0FC01E65DFF4F9D
S11303D00C94AC0780E80E948100089581E80E9493
S11303E08100089582E80E948100089583E80E94B4
S11303F08100089584E80E948100089585E80E94A0
S11304008100089586E80E948100089587E80E948B
S11304108100089588E80E948100089589E80E9477
S1130420810008958AE80E94810008958BE80E9463
S1130430810008958CE80E94810008958DE80E944F
S1130440810008958EE80E94810008958FE80E943B
S113045081000895862F90E08031910508F044C012
S1130460FC01E65CFF4F0C94AC0780EC0E94810019
S1130470089581EC0E948100089582EC0E9481001D
S1130480089583EC0E948100089584EC0E94810009
S1130490089585EC0E948100089586EC0E948100F5
S11304A0089587EC0E948100089588EC0E948100E1
S11304B0089589EC0E94810008958AEC0E948100CD
S11304C008958BEC0E94810008958CEC0E948100B9
S11304D008958DEC0E94810008958EEC0E948100A5
S11304E008958FEC0E948100089580E00E94230308
S11304F0089580E00E9410068093BE0081E08093FE
S1130500600008950E94F1040E9441010E9470005D
S113051066E081E00E94EC020E9469000E940D07DF
S113052080E00E940306789482E00E94010563E063
S113053082E00E9413050E9415068093BE0060E0CD
S113054080E00E94D9016091BE0070E080E090E0FC
S11305500E94630169E772E082E00E94730581E60C
S113056090E00E94C60160E080E00E94D90181E72A
S113057090E00E94C6016091BE0070E080E090E0CF
S11305800E94630183E40E94600187E10E94B90430
S1130590811104C00E9410068093BE008091600007
S11305A081110CC060E081E00E94D90187E790E0EE
S11305B00E94C60182E080936000D1CF80916000E8
S11305C0813069F660E00E94D9018BE790E00E94D7
S11305D0C60110926000C3CF677096B1987F96B938
S11305E096B1692B66B9813059F018F0823079F0F0
S11305F014C087B18F7B87B987B18F7787B90DC056
S113060087B1806487B987B18F7787B906C087B10E
S1130610806487B987B1806887B987B18F7D87B9CE
S113062086B1806886B9089597B1907E97B98F7125
S113063097B1892B87B986B1806486B93699FECF84
S113064084B195B108950E9414039C01A8E8B3E114
S11306500E94B207DC01CB01072E7AE0B695A7957C
S1130660979587957A95D1F7702D0895982F96953B
S1130670969596958770683009F456C0693009F4E8
S1130680A3C0673009F0EFC09130C1F028F0923078
S113069039F19330B9F108954AB321E030E0B9015A
S11306A002C0660F771F8A95E2F7CB01942F982B2F
S11306B09ABB9BB3809589238BBB089547B321E0F4
S11306C030E0B90102C0660F771F8A95E2F7CB01CB
S11306D0942F982B97BB98B38095892388BB089552
S11306E044B321E030E0B90102C0660F771F8A9558
S11306F0E2F7CB01942F982B94BB95B38095892373
S113070085BB089541B321E030E0B90102C0660F12
S1130710771F8A95E2F7CB01942F982B91BB92B364
S11307208095892382BB08959130C1F028F09230DE
S113073039F19330B9F108954AB321E030E0B901B9
S113074002C0660F771F8A95E2F7CB018095942F3C
S113075098239ABB9BB389238BBB089547B321E0AD
S113076030E0B90102C0660F771F8A95E2F7CB012A
S11307708095942F982397BB98B3892388BB0895B9
S113078044B321E030E0B90102C0660F771F8A95B7
S1130790E2F7CB018095942F982394BB95B38923DA
S11307A085BB089541B321E030E0B90102C0660F72
S11307B0771F8A95E2F7CB018095942F982391BBFC
S11307C092B3892382BB08959130C1F028F092300E
S11307D039F19330B9F108954AB321E030E0B90119
S11307E002C0660F771F8A95E2F7CB01962F90958A
S11307F094239ABB9BB3892B8BBB089547B321E009
S113080030E0B90102C0660F771F8A95E2F7CB0189
S1130810962F9095942397BB98B3892B88BB089502
S113082044B321E030E0B90102C0660F771F8A9516
S1130830E2F7CB01962F9095942394BB95B3892B23
S113084085BB089541B321E030E0B90102C0660FD1
S1130850771F8A95E2F7CB01962F9095942391BB4D
S113086092B3892B82BB0895982F96959695969569
S113087087706130E1F5913099F028F09230E9F019
S1130880933041F108954BB321E030E0B90102C047
S1130890660F771F8A95E2F7CB01842B8BBB0895F3
S11308A048B321E030E0B90102C0660F771F8A9592
S11308B0E2F7CB01842B88BB089545B321E030E0F7
S11308C0B90102C0660F771F8A95E2F7CB01842B2A
S11308D085BB089542B321E030E0B90102C0660F40
S11308E0771F8A95E2F7CB01842B82BB08956111AF
S11308F03FC09130A1F028F09230F9F0933059F1D3
S113090008954BB321E030E0B90102C0660F771FB0
S11309108A95E2F7CB01809584238BBB089548B375
S113092021E030E0B90102C0660F771F8A95E2F733
S1130930CB018095842388BB089545B321E030E042
S1130940B90102C0660F771F8A95E2F7CB01809543
S1130950842385BB089542B321E030E0B90102C08D
S1130960660F771F8A95E2F7CB018095842382BBBB
S11309700895982F969596959695482F477091309F
S113098081F028F09230B9F09330F9F028C099B38F
S1130990892F90E002C0959587954A95E2F781707A
S11309A0089526B330E0C90102C0959587954A950C
S11309B0E2F78170089523B330E0C90102C0959530
S11309C087954A95E2F78170089520B330E0C90114
S11309D002C0959587954A95E2F78170089580E065
S11309E00895CF93C0E009C0EC2FF0E0EA57FF4F21
S11309F060818C2F0E943603CF5FC032A8F3CF9161
S1130A000895813041F018F0823049F008958BB791
S1130A1080648BBF08958BB780688BBF08958BB7B4
S1130A2080628BBF0895813049F120F0823009F44F
S1130A3049C00895613069F028F0623089F063306C
S1130A40B1F0089585B78E7F85BF85B78D7F85BF4B
S1130A50089585B7816085BF85B78D7F85BF08956B
S1130A6085B78E7F85BF85B7826085BF089585B7BA
S1130A70816085BF85B7826085BF0895613069F064
S1130A8028F0623089F06330B1F0089585B78B7F28
S1130A9085BF85B7877F85BF089585B7846085BF87
S1130AA085B7877F85BF089585B78B7F85BF85B759
S1130AB0886085BF089585B7846085BF85B78860E1
S1130AC085BF0895623019F0633029F008C084B7F7
S1130AD08F7B84BF089584B7806484BF089584B7EE
S1130AE08F7B84BF0895813049F018F0823059F02B
S1130AF008957093AD006093AC0008957093AB00BB
S1130B006093AA0008957093A9006093A8000895C3
S1130B101F920F920FB60F9211242F933F934F936E
S1130B205F936F937F938F939F93AF93BF93EF9351
S1130B30FF93E091AC00F091AD00309709F0099576
S1130B40FF91EF91BF91AF919F918F917F916F91A1
S1130B505F914F913F912F910F900FBE0F901F9077
S1130B6018951F920F920FB60F9211242F933F9353
S1130B704F935F936F937F938F939F93AF93BF93A1
S1130B80EF93FF93E091AA00F091AB00309709F046
S1130B900995FF91EF91BF91AF919F918F917F91B3
S1130BA06F915F914F913F912F910F900FBE0F90D6
S1130BB01F9018951F920F920FB60F9211242F9326
S1130BC03F934F935F936F937F938F939F93AF93D1
S1130BD0BF93EF93FF93E091A800F091A9003097A1
S1130BE009F00995FF91EF91BF91AF919F918F917A
S1130BF07F916F915F914F913F912F910F900FBE15
S1130C000F901F901895811104C08DB180618DB92A
S1130C1003C08DB18F7E8DB98DB180648DB9089577
S1130C208FB9779BFECF8FB108958FB108951F922E
S1130C300F920FB60F9211242F933F934F935F930C
S1130C406F937F938F939F93AF93BF93EF93FF9390
S1130C50E091AE00F091AF00309709F00995FF9153
S1130C60EF91BF91AF919F918F917F916F915F9120
S1130C704F913F912F910F900FBE0F901F90189599
S1130C801F920F920FB60F9211242F933F934F93FD
S1130C905F936F937F938F939F93AF93BF93EF93E0
S1130CA0FF93E091B800F091B900309709F00995ED
S1130CB0FF91EF91BF91AF919F918F917F916F9130
S1130CC05F914F913F912F910F900FBE0F901F9006
S1130CD018951F920F920FB60F9211242F933F93E2
S1130CE04F935F936F937F938F939F93AF93BF9330
S1130CF0EF93FF93E091B600F091B700309709F0BD
S1130D000995FF91EF91BF91AF919F918F917F9141
S1130D106F915F914F913F912F910F900FBE0F9064
S1130D201F9018951F920F920FB60F9211242F93B4
S1130D303F934F935F936F937F938F939F93AF935F
S1130D40BF93EF93FF93E091B400F091B500309717
S1130D5009F00995FF91EF91BF91AF919F918F9108
S1130D607F916F915F914F913F912F910F900FBEA3
S1130D700F901F9018951F920F920FB60F92112487
S1130D802F933F934F935F936F937F938F939F938F
S1130D90AF93BF93EF93FF93E091B200F091B30050
S1130DA0309709F00995FF91EF91BF91AF919F9111
S1130DB08F917F916F915F914F913F912F910F9000
S1130DC00FBE0F901F9018951F920F920FB60F929F
S1130DD011242F933F934F935F936F937F938F933C
S1130DE09F93AF93BF93EF93FF93E091B000F09183
S1130DF0B100309709F00995FF91EF91BF91AF9140
S1130E009F918F917F916F915F914F913F912F911E
S1130E100F900FBE0F901F90189583E389B98BB183
S1130E208D7F8BB98AB188608AB98AB180618AB9A9
S1130E3008951F920F920FB60F9211242F933F9390
S1130E404F935F936F937F938F939F93AF93BF93CE
S1130E50EF93FF93E091BC00F091BD00309709F04F
S1130E600995FF91EF91BF91AF919F918F917F91E0
S1130E706F915F914F913F912F910F900FBE0F9003
S1130E801F9018951F920F920FB60F9211242F9353
S1130E903F934F935F936F937F938F939F93AF93FE
S1130EA0BF93EF93FF93E091BA00F091BB003097AA
S1130EB009F00995FF91EF91BF91AF919F918F91A7
S1130EC07F916F915F914F913F912F910F900FBE42
S1130ED00F901F901895A1E21A2EAA1BBB1BFD01AF
S1130EE00DC0AA1FBB1FEE1FFF1FA217B307E40705
S1130EF0F50720F0A21BB30BE40BF50B661F771F5D
S1130F00881F991F1A9469F760957095809590953C
S1130F109B01AC01BD01CF010895052E97FB1EF482
S1130F2000940E94A40757FD07D00E946B0707FC9A
S1130F3003D04EF40C94A407509540953095219518
S1130F403F4F4F4F5F4F08959095809570956195F1
S1130F507F4F8F4F9F4F0895EE0FFF1F0590F49121
S1130F60E02D0994A29FB001B39FC001A39F700D0F
S1130F70811D1124911DB29F700D811D1124911D9D
S1090F800895F894FFCF70
S1130F86FF20202020202020202020202020202078
S1130F960054454D503A004E4F542041424F564559
S1130FA62035302043000807070707070707070708
S1130FB607070707080709090909070707090707AC
S1090FC6070707070707F7
S9030000FC
