:100000000C944A000C94CD040C94F6040C941F0537
:100010000C9467000C942F060C9406060C94B405FF
:100020000C94DD050C948B050C9467000C94620510
:100030000C9467000C9464060C9467000C948D0675
:100040000C9467000C9467000C9467000C94670094
:100050000C946700EA01EE01F201F601FA01FE01DB
:10006000020206020A020E02120216021A021E0200
:1000700022022602350239023D02410245024902AE
:100080004D025102550259025D0261026502690288
:100090006D02710211241FBECFE5D8E0DEBFCDBFD7
:1000A00010E0A0E6B0E0ECE1FEE002C005900D92A9
:1000B000A639B107D9F720E0A6E9B0E001C01D924A
:1000C000AE3AB207E1F70E9479020C940C070C9447
:1000D00000000E9475029093970080939600089507
:1000E00061E08CE00E94380461E08DE00E943804F9
:1000F00061E08EE00E94380461E08FE00E943804E5
:100100000895CF93C82F60E081E00E9438046C2FDF
:10011000661F6627661F86E00E943804C6FB6627B6
:1001200060F985E00E943804C5FB662760F984E029
:100130000E943804C4FB662760F983E00E943804FB
:1001400061E082E00E9438048FEC97E00197F1F7BC
:1001500000C0000060E082E00E9438048FEC97E06D
:100160000197F1F700C00000C3FB662760F986E045
:100170000E943804C2FB662760F985E00E943804BB
:10018000C1FB662760F984E00E9438046C2F61701F
:1001900083E00E94380461E082E00E9438048FEC22
:1001A00097E00197F1F700C0000060E082E00E9454
:1001B00038048FEC97E00197F1F700C00000CF9171
:1001C0000895CF93C82F61E081E00E9438046C2F1E
:1001D000661F6627661F86E00E943804C6FB6627F6
:1001E00060F985E00E943804C5FB662760F984E069
:1001F0000E943804C4FB662760F983E00E9438043B
:1002000061E082E00E9438048FEC97E00197F1F7FB
:1002100000C0000060E082E00E9438048FEC97E0AC
:100220000197F1F700C00000C3FB662760F986E084
:100230000E943804C2FB662760F985E00E943804FA
:10024000C1FB662760F984E00E9438046C2F61705E
:1002500083E00E94380461E082E00E9438048FEC61
:1002600097E00197F1F700C0000060E082E00E9493
:1002700038048FEC97E00197F1F700C00000CF91B0
:1002800008952FE788E391E0215080409040E1F706
:1002900000C0000082E00E94810088E20E9481008C
:1002A0008CE00E94810081E00E9481008FEC97E049
:1002B0000197F1F700C0000086E00E9481000895D8
:1002C0000E94E1000895CF92DF92EF92FF921F9378
:1002D000CF93DF93CDB7DEB72A970FB6F894DEBF82
:1002E0000FBECDBF6B017C016115710581059105C4
:1002F00021F480E30E9460013BC099235CF48DE20D
:100300000E946001F094E094D094C094C11CD11C70
:10031000E11CF11C10E017C0C701B6012AE030E073
:1003200040E050E00E94D806E1E0F0E0EC0FFD1F55
:10033000E10FF11D17FDFA95605D6083C22ED32E8B
:10034000E42EF52E1F5FC114D104E104F10421F75E
:1003500011500CC0E1E0F0E0EC0FFD1FE10FF11DCA
:1003600017FDFA9580810E94600111501F3F91F79F
:100370002A960FB6F894DEBF0FBECDBFDF91CF91A6
:100380001F91FF90EF90DF90CF9008950F931F93F0
:10039000CF938C01C0E003C00E946001CF5FF801E1
:1003A000EC0FF11D80818111F7CFCF911F910F913B
:1003B0000895882321F0813009F44CC00895862FD8
:1003C00090E08031910508F08FC0FC01E65DFF4FA1
:1003D0000C94F70680E80E948100089581E80E944D
:1003E0008100089582E80E948100089583E80E94B8
:1003F0008100089584E80E948100089585E80E94A4
:100400008100089586E80E948100089587E80E948F
:100410008100089588E80E948100089589E80E947B
:10042000810008958AE80E94810008958BE80E9467
:10043000810008958CE80E94810008958DE80E9453
:10044000810008958EE80E94810008958FE80E943F
:1004500081000895862F90E08031910508F044C016
:10046000FC01E65CFF4F0C94F70680EC0E948100D3
:10047000089581EC0E948100089582EC0E94810021
:10048000089583EC0E948100089584EC0E9481000D
:10049000089585EC0E948100089586EC0E948100F9
:1004A000089587EC0E948100089588EC0E948100E5
:1004B000089589EC0E94810008958AEC0E948100D1
:1004C00008958BEC0E94810008958CEC0E948100BD
:1004D00008958DEC0E94810008958EEC0E948100A9
:1004E00008958FEC0E948100089580E00E94270308
:1004F0000895CF93DF9300D0CDB7DEB70E94BD043F
:100500000E9441010E94700066E081E00E94F002BA
:100510000E9469000E94580681E00E9448050E94DE
:1005200075029C01ADECBCEC0E94FD06969587958A
:1005300096958795969587950E94600500E010E056
:1005400002C000E010E00E9475029C01ADECBCEC22
:100550000E94FD067C01F694E794F694E794F694E5
:10056000E79480E690E00E94C60160E080E00E948F
:10057000D90180E790E00E94C601B70180E090E0D9
:100580000E94630183E40E946001CE0101960E94F3
:100590005505882319F08E2D0E94600583E3E81627
:1005A000F10470F061E080E10E9438048FEC97E084
:1005B0000197F1F700C0000060E080E10E9438047C
:1005C00060E081E00E94D901B80180E090E00E94E3
:1005D00063010F5F1F4F0A30110509F0B4CFB1CF8F
:1005E000677096B1987F96B996B1692B66B98130DC
:1005F00059F018F0823079F014C087B18F7B87B939
:1006000087B18F7787B90DC087B1806487B987B10B
:100610008F7787B906C087B1806487B987B1806852
:1006200087B987B18F7D87B986B1806886B908950B
:1006300097B1907E97B98F7197B1892B87B986B1A1
:10064000806486B93699FECF84B195B108950E9431
:1006500018039C01A8E8B3E10E94FD06DC01CB0170
:10066000072E7AE0B695A795979587957A95D1F755
:10067000702D0895982F9695969596958770683069
:1006800009F456C0693009F4A3C0673009F0EFC01F
:100690009130C1F028F0923039F19330B9F10895DA
:1006A0004AB321E030E0B90102C0660F771F8A9596
:1006B000E2F7CB01942F982B9ABB9BB380958923AB
:1006C0008BBB089547B321E030E0B90102C0660F4B
:1006D000771F8A95E2F7CB01942F982B97BB98B39D
:1006E0008095892388BB089544B321E030E0B901A7
:1006F00002C0660F771F8A95E2F7CB01942F982BE3
:1007000094BB95B38095892385BB089541B321E0BF
:1007100030E0B90102C0660F771F8A95E2F7CB017E
:10072000942F982B91BB92B38095892382BB089517
:100730009130C1F028F0923039F19330B9F1089539
:100740004AB321E030E0B90102C0660F771F8A95F5
:10075000E2F7CB018095942F98239ABB9BB3892312
:100760008BBB089547B321E030E0B90102C0660FAA
:10077000771F8A95E2F7CB018095942F982397BB3A
:1007800098B3892388BB089544B321E030E0B901D0
:1007900002C0660F771F8A95E2F7CB018095942FF0
:1007A000982394BB95B3892385BB089541B321E079
:1007B00030E0B90102C0660F771F8A95E2F7CB01DE
:1007C0008095942F982391BB92B3892382BB08957F
:1007D0009130C1F028F0923039F19330B9F1089599
:1007E0004AB321E030E0B90102C0660F771F8A9555
:1007F000E2F7CB01962F909594239ABB9BB3892B5C
:100800008BBB089547B321E030E0B90102C0660F09
:10081000771F8A95E2F7CB01962F9095942397BB8B
:1008200098B3892B88BB089544B321E030E0B90127
:1008300002C0660F771F8A95E2F7CB01962F90953D
:10084000942394BB95B3892B85BB089541B321E0D4
:1008500030E0B90102C0660F771F8A95E2F7CB013D
:10086000962F9095942391BB92B3892B82BB0895C8
:10087000982F96959695969587706130E1F5913011
:1008800099F028F09230E9F0933041F108954BB39C
:1008900021E030E0B90102C0660F771F8A95E2F7C8
:1008A000CB01842B8BBB089548B321E030E0B90124
:1008B00002C0660F771F8A95E2F7CB01842B88BBB5
:1008C000089545B321E030E0B90102C0660F771FFB
:1008D0008A95E2F7CB01842B85BB089542B321E0D2
:1008E00030E0B90102C0660F771F8A95E2F7CB01AD
:1008F000842B82BB089561113FC09130A1F028F094
:100900009230F9F0933059F108954BB321E030E083
:10091000B90102C0660F771F8A95E2F7CB01809577
:1009200084238BBB089548B321E030E0B90102C0B5
:10093000660F771F8A95E2F7CB018095842388BBE9
:10094000089545B321E030E0B90102C0660F771F7A
:100950008A95E2F7CB018095842385BB089542B345
:1009600021E030E0B90102C0660F771F8A95E2F7F7
:10097000CB018095842382BB0895CF93C0E009C04A
:10098000EC2FF0E0EA58FF4F60818C2F0E943A0371
:10099000CF5FC032A8F3CF9108951F920F920FB688
:1009A0000F9211242F933F934F935F936F937F93F5
:1009B0008F939F93AF93BF93EF93FF93E0919C002E
:1009C000F0919D00309709F00995FF91EF91BF914B
:1009D000AF919F918F917F916F915F914F913F91D7
:1009E0002F910F900FBE0F901F9018951F920F928E
:1009F0000FB60F9211242F933F934F935F936F93F2
:100A00007F938F939F93AF93BF93EF93FF93E09167
:100A10009A00F0919B00309709F00995FF91EF91B2
:100A2000BF91AF919F918F917F916F915F914F9106
:100A30003F912F910F900FBE0F901F9018951F920E
:100A40000F920FB60F9211242F933F934F935F9302
:100A50006F937F938F939F93AF93BF93EF93FF9386
:100A6000E0919800F0919900309709F00995FF9175
:100A7000EF91BF91AF919F918F917F916F915F9116
:100A80004F913F912F910F900FBE0F901F9018958F
:100A9000811104C08DB180618DB903C08DB18F7E8D
:100AA0008DB98DB180648DB90895FC019EB1892FF7
:100AB000881F8827881F19F08FB1808381E00895EF
:100AC0008FB908951F920F920FB60F9211242F9392
:100AD0003F934F935F936F937F938F939F93AF93C6
:100AE000BF93EF93FF93E0919E00F0919F003097AA
:100AF00009F00995FF91EF91BF91AF919F918F916F
:100B00007F916F915F914F913F912F910F900FBE09
:100B10000F901F9018951F920F920FB60F921124ED
:100B20002F933F934F935F936F937F938F939F93F5
:100B3000AF93BF93EF93FF93E091A800F091A900CA
:100B4000309709F00995FF91EF91BF91AF919F9177
:100B50008F917F916F915F914F913F912F910F9066
:100B60000FBE0F901F9018951F920F920FB60F9205
:100B700011242F933F934F935F936F937F938F93A2
:100B80009F93AF93BF93EF93FF93E091A600F091F3
:100B9000A700309709F00995FF91EF91BF91AF91B0
:100BA0009F918F917F916F915F914F913F912F9185
:100BB0000F900FBE0F901F9018951F920F920FB6B7
:100BC0000F9211242F933F934F935F936F937F93D3
:100BD0008F939F93AF93BF93EF93FF93E091A40004
:100BE000F091A500309709F00995FF91EF91BF9121
:100BF000AF919F918F917F916F915F914F913F91B5
:100C00002F910F900FBE0F901F9018951F920F926B
:100C10000FB60F9211242F933F934F935F936F93CF
:100C20007F938F939F93AF93BF93EF93FF93E09145
:100C3000A200F091A300309709F00995FF91EF9180
:100C4000BF91AF919F918F917F916F915F914F91E4
:100C50003F912F910F900FBE0F901F9018951F92EC
:100C60000F920FB60F9211242F933F934F935F93E0
:100C70006F937F938F939F93AF93BF93EF93FF9364
:100C8000E091A000F091A100309709F00995FF9143
:100C9000EF91BF91AF919F918F917F916F915F91F4
:100CA0004F913F912F910F900FBE0F901F9018956D
:100CB00083E389B98BB18D7F8BB98AB188608AB99A
:100CC0008AB180618AB908951F920F920FB60F9270
:100CD00011242F933F934F935F936F937F938F9341
:100CE0009F93AF93BF93EF93FF93E091AC00F0918C
:100CF000AD00309709F00995FF91EF91BF91AF9149
:100D00009F918F917F916F915F914F913F912F9123
:100D10000F900FBE0F901F9018951F920F920FB655
:100D20000F9211242F933F934F935F936F937F9371
:100D30008F939F93AF93BF93EF93FF93E091AA009C
:100D4000F091AB00309709F00995FF91EF91BF91B9
:100D5000AF919F918F917F916F915F914F913F9153
:100D60002F910F900FBE0F901F901895A1E21A2E91
:100D7000AA1BBB1BFD010DC0AA1FBB1FEE1FFF1F3F
:100D8000A217B307E407F50720F0A21BB30BE40B8F
:100D9000F50B661F771F881F991F1A9469F76095D6
:100DA0007095809590959B01AC01BD01CF01089590
:100DB000052E97FB1EF400940E94EF0657FD07D006
:100DC0000E94B60607FC03D04EF40C94EF06509533
:100DD0004095309521953F4F4F4F5F4F0895909527
:100DE0008095709561957F4F8F4F9F4F0895EE0FBF
:100DF000FF1F0590F491E02D0994A29FB001B39FCD
:100E0000C001A39F700D811D1124911DB29F700D13
:0C0E1000811D1124911D0895F894FFCF5E
:100E1C0020202020202020202020202020202000E6
:100E2C0054454D503A0008070707070707070707FF
:100E3C00070708080708070909090707070707072D
:060E4C0007070707070776
:00000001FF
